:020000040800F2
:10000000404500202D020008A73E0008EF330008FD
:10001000A53E0008711F00083D75000800000000A3
:10002000000000000000000000000000596A000805
:1000300083220008000000005B400008C97100082E
:1000400095B1000859400008A57200081B4B000834
:10005000493000086946000885220008A12E0008E2
:10006000A52E0008D12E0008252F0008B120000879
:10007000B3200008B5200008B9200008E5200008DA
:10008000E7200008E9200008B3170008C37400083F
:10009000C5740008731F0008751F0008272F00088B
:1000A000A7720008C5720008AD720008A9720008A6
:1000B000DD7200081173000813730008F3330008A1
:1000C000F1330008F7330008F5330008F56700083E
:1000D00095680008097400080B7400080D74000886
:1000E00089220008194B0008C17400081B7300081E
:1000F000217300081F7300081D730008B51700085E
:10010000493100081D4B0008157300089768000866
:1001100005740008077400081773000819730008B5
:10012000EB200008ED200008EF200008F120000877
:1001300000F002F800F06AF80AA090E8000C82448F
:100140008344AAF10107DA4501D100F05FF8AFF26C
:10015000090EBAE80F0013F0010F18BFFB1A43F0A5
:10016000010318471CDF00003CDF00000A444FF089
:10017000000C10F8013B13F0070408BF10F8014B06
:100180001D1108BF10F8015B641E05D010F8016B4B
:10019000641E01F8016BF9D113F0080F1EBF10F8AF
:1001A000014BAD1C0C1B09D16D1E58BF01F801CBD2
:1001B000FAD505E014F8016B01F8016B6D1EF9D555
:1001C0009142D6D37047000000230024002500266A
:1001D000103A28BF78C1FBD8520728BF30C148BFAA
:1001E0000B6070471FB50DF08EFA00F027FA04007F
:1001F000002000210CF054FA401C60600020002117
:100200000CF038FAE0601FBD10B510BD00F0F1F938
:100210001146FFF7E7FF0BF041FD00F07BFC03B454
:10022000FFF7F2FF03BC0BF007F90000034800479B
:1002300003480449044A054B704700003101000897
:100240004039002040450020403D0020403D002036
:10025000704770B5064600F0B1F8046805463046B0
:100260000A22002100F00AF92C6070BD70B5044626
:100270000D4604E029460BF0A3FC401C04D014F802
:10028000010B0028F6D170BD4FF0FF3070BD0BF0B0
:1002900097BC10B5431C02E010F8011B71B1810737
:1002A000FAD14FF0013202C88C1A8C4314EAC21101
:1002B000F9D0C01A0A0603D0C01E10BDC01A10BD66
:1002C0000A0401D0801E10BD0902FCD0401E10BDE2
:1002D00010B5203AC0F00B80B1E81850203AA0E8E1
:1002E0001850B1E81850A0E81850BFF4F5AF5FEA15
:1002F000027C24BFB1E81850A0E8185044BF18C9C8
:1003000018C0BDE810405FEA827C24BF51F8043B6E
:1003100040F8043B08BF7047D20728BF31F8023BC2
:1003200048BF11F8012B28BF20F8023B48BF00F856
:10033000012B70474FF0013C50F8042B51F8043B5F
:100340009A4221D1A2EB0C03934313EACC1317D1A9
:1003500050F8042B51F8043B9A4215D1A2EB0C0340
:10036000934313EACC130BD150F8042B51F8043B00
:100370009A4209D1A2EB0C03934313EACC13DBD0CE
:100380004FF00000704700BFD01A01BAB1FA81F1F6
:1003900001F0180122FA01F0CB40C1F12001DBB2DB
:1003A000C0B2C01A2CFA01F3D11A914311EAC31159
:1003B000E6D17047704770477047000000487047AB
:1003C000DC38002010B5FFF7F9FF006810BD10B54C
:1003D0000446FFF7F3FF046010BD00000FB40023D4
:1003E00000B589B00CA900910B99CB60204B7B44E0
:1003F000204A7A44CDE90632042201926FF000428D
:1004000002921D4A7A446B460892024600200DF083
:1004100078FB09B05DF814FB70B506464FF0FF306D
:100420000C461546324686B00091CDE90101694679
:100430000020049004A8FFF7D1FF03460498211878
:100440001DB10A4600B922462A6000280DD0002BB3
:1004500002DD0098884208D03246081B69460094A5
:10046000CDE9010404A8FFF7B9FF06B070BD000094
:10047000250100003F010000FD0000002DE9F047CC
:100480000F46914680460446002614F8015B2DB1C4
:1004900000F030F80068405DC007F6D12B2D02D087
:1004A0002D2D18D0641E4A463946204600F053F8D8
:1004B00027B13968A14201D1C7F800804FF002048A
:1004C00071050BD54042002803DDFFF777FF04607C
:1004D000A007BDE8F08746F48066E4E70028F8DA74
:1004E000FFF76CFF04606FF00040F2E700487047D0
:1004F000DC38002010B500F0A1F8001D10BD00BFD1
:10050000A1C1000010B50446FFF7F4FF0068005DCC
:1005100000F0010010BD426842B1016811F8013BD2
:1005200023B1521EC0E90012184670470121C16074
:10053000881E7047416859B1C368026843B983682F
:10054000934205D0521E491CC0E90021002070478B
:100550004FF0FF3070472DE9F05F824604468B462E
:100560001546641C0027B9460078302801D09DB19B
:1005700013E014F8010B0127782803D0582801D084
:1005800045B10AE00DB1102D07D1002714F8010B79
:10059000102502E0082500E00A250026B0460EE0FE
:1005A00005FB080005FB06F101271FFA80F801EBA7
:1005B0001046B6F5803F00D3B94614F8010B294622
:1005C00000F040F80028EBDABBF1000F04D0641E05
:1005D00007B95446CBF80040B9F1000F06D0FFF739
:1005E000EDFE02210160C81EBDE8F09F48EA06400A
:1005F000FAE77546FFF77AFFAE46050069465346AF
:1006000020F00700854618B020B5FFF711FEBDE8C1
:1006100020404FF000064FF000074FF000084FF069
:10062000000B21F00701AC46ACE8C009ACE8C009FA
:10063000ACE8C009ACE8C0098D4670470048704777
:10064000FC3800203A2800D2303820F02002412A1D
:1006500001D3A2F137004FF0FF32884200D20246A8
:10066000104670472DE9F04F80469B4689B00878C8
:10067000FF2806D0491C2D2805D000244FF0000982
:1006800008E000200CE00124F8E709EB8903491C8D
:1006900000EB43090878FF28F7D114B1C9F1000035
:1006A0008146107800242646A2462D2801D02B280A
:1006B00013D1521C2D2802D0002082460DE00120CB
:1006C000FBE70A200025A4FB007C521C06FB00C0AF
:1006D00004FB0500CC1945EB00061178FF29F0D189
:1006E000002108464FF00000BAF1000F02D000EBE5
:1006F00080004008C0F38157012F01DD4FF0FF3724
:1007000054EA060009EB0B054FF0000906D14FEA49
:10071000CA71C8E9009109B0BDE8F08F15F5FA7FFC
:100720004FF0020B04DA4FEACA71C8E900910CE0FD
:10073000B5F5FA7F0EDDF4487844D0E90012C8F828
:10074000001042EACA71C8F80410FFF737FEC0F87B
:1007500000B0E0E7291EC7F1000200DB3A4600DAEC
:10076000694206A800F0DCF906AB07CB03AB07C370
:1007700044F23E0059EA06010090484604D144F292
:100780001E0126464C460091310C0904014306D156
:100790000099360446EA144624041039009106F004
:1007A0007F41014306D10099360246EA14662402CD
:1007B0000839009106F07041014306D100993601D5
:1007C00046EA14762401091F009106F040410143D6
:1007D00006D10099B60046EA9476A400891E0091DD
:1007E00006F00041084304D1009824197641401EC8
:1007F00000903A466846CDE90164002D03A902DD68
:1008000000F0A1FE01E000F076FEBAF1000F044610
:100810000D4601D084F0004440F2FF7624F0004001
:10082000284303D0C4F30A50B04214D1FFF7C6FDE9
:10083000C0F800B0C4F30A50B0420CD1B3487844B9
:10084000D0E90012C8F8001004F0004142EA0100AB
:10085000C8F804005FE7C8E900545CE72DE9FF4FE2
:100860001F464FF0000A4FF0FF38454691B0D7E9D8
:100870000146CDF83CA0FFF7E1FEC0680168405C8E
:100880001090B96912986D1C8847396A814688476B
:100890000028F6D119F101000AD0002E24F4D0640A
:1008A00012DDB9F12B0F08D0B9F12D0F0CD102E0F8
:1008B000404615B030E744F48064B96912986D1C65
:1008C00088478146A6F101062D20620504A900D4BF
:1008D0002B20002E01F1010B0DF130088DF81000D6
:1008E0003FDDB9F1690F08D0B9F1490F05D0B9F171
:1008F0006E0F02D0B9F14E0F1CD13B4601A80095F6
:10090000A0E85002DDE912126FF002000DF0FDF8D0
:10091000C11CCED10EE0B96912986D1C8847814682
:100920001398761E44F4007405600F98401C002E46
:100930000F9016DDB9F1300FEDD0B9F1780F02D07C
:10094000B9F1580F0DD10F9801280AD13B46CDE9D6
:100950000054DDE91212001F02960DF0D4F8C11CFC
:10096000A7D1109989453ED144F0800406E013993F
:10097000681CAAF1010A44F400740860B969761E83
:1009800012986D1C884730288146F0D02BE01099D2
:10099000894505D1200603D4761E44F0800418E072
:1009A00048460AF042FD08B3761E0DF123018B453F
:1009B00044F4007408D2A9F130000BF8010B2006B2
:1009C00007D5AAF1010003E0200602D40AF10100D4
:1009D0008246A00502D51399681C0860B96912986F
:1009E0006D1C88478146002ED1DC5BE0002E59DD6E
:1009F000B9F1650F02D0B9F1450F53D1A00551D51A
:100A0000B969761E12986D1C24F44074884781469B
:100A10002020002E00DD48462B2803D02D2808D1A9
:100A200044F48074B96912986D1C88478146A6F118
:100A30000106E00505D52D2088F8000008F1010029
:100A400004E02B2108F1010088F800108046009096
:100A500021E0761E0DF13901884544F400740ED270
:100A60004146A9F1300010F0FF0088F8000003D1E2
:100A700008460099884207D908F1010804E0244893
:100A8000E10500D440428246B96912986D1C88473E
:100A9000814613980560002E04DD48460AF0C5FC27
:100AA0000028D6D1F96912988847FF2053468BF861
:100AB000000088F8000000200A900B9004AA0CA9FE
:100AC0000AA8FFF7CFFDA00502D46FF00100F0E601
:100AD00014F0240F0AD0E00714D13868DDE90A12B7
:100AE000031D3B600068C0E900120BE00AA96846DC
:100AF0000AF097FBE00705D13868009A011D3960BC
:100B0000006802602846D4E664D900005ED8000080
:100B1000F1D8FFFF0446AFF300802046FFF77FFBCC
:100B20002DE9F047814616468AB035487844D0E929
:100B3000002380680092CDE90130314878440C38B8
:100B4000D0E90223006903924FF03702CDE9043067
:100B500041F69B30014491FBF2F0A0F1800502FBCD
:100B600010141B3C02D56442012000E00020DFF895
:100B700090A080460027FA44AAF1C60A0DE0E007DB
:100B800009D03246684607EB47010AEB810100F0C5
:100B9000C6FC8DE8070064107F1C002CEFD1184FB5
:100BA0007F44B43F17E0E80713D007EB04100DF1C2
:100BB000180A90E80E00AAE80E00C068F04201D1C1
:100BC00098190890324606A903A800F0A8FC03ABC8
:100BD00007C36D10641C002DE5D132466946B8F19B
:100BE000000F03A802D000F072FC01E000F097FCB7
:100BF000C9E90001C9F808200AB0BDE8F087000083
:100C000038D5000000487047E03800202DE9FF4F3C
:100C1000984687B04FF00042DDE9141001F1010958
:100C2000DDF858A002EA405003900020059083466A
:100C30000546044604909969461E08983C27884753
:100C4000AAF1010A0290BAF1000F36DD02982E28AF
:100C500013D01021FFF7F6FC002829DB4FF0010B21
:100C60000599014314D0002F0ADB3A46C11700F062
:100C7000F1F905430C433F1F05E00120049007E014
:100C800008B145F0010501200590049800B9361D12
:100C9000D8F81810089809F101098847BBF1000F2E
:100CA000AAF1010A0290CED00999C1F80090CAE7D2
:100CB0000298702809D0502807D0D8F81C1008983E
:100CC0008847BBF1000F15D04FE0002002900120B3
:100CD000BBF1000F049009D0D8F81810089809F15A
:100CE00001098847AAF10107002F08DCD8F81C1079
:100CF000089888476FF001000BB0BDE8F08F2B28F3
:100D000004D02D280BD14FF0FF300490D8F81810E4
:100D1000089809F1010988477F1E002FE6DD411C74
:100D2000E4D00A21FFF78EFC0028DFDB029909F1ED
:100D3000010901EB810100EB41000290D8F8181085
:100D4000089888470A21FFF77DFC099A7F1E002F2B
:100D5000C2F8009001DD0028E8DAD8F81C100898E5
:100D600088470499029800FB016655EA040001D106
:100D7000039894E004F04041090004D1A40044EA3F
:100D80009574AD00B61E04F00041080002D16D1943
:100D90006441761E159810F0240F03D04FF00B0A13
:100DA0005A4803E04FF0280A6FF07D0083465E4505
:100DB00007DAABEB06018A44BAF1410F01DD4FF0CF
:100DC000410A012700213846AAF1010200F042F948
:100DD000034628400A462140084300D10027591EF7
:100DE00042F1FF32012029402240114300D100206E
:100DF000029038434CD0002108464FF00000039980
:100E000000F4400039B100EB80004FF4400100EBEA
:100E1000D07001EA60008015012802DD4FF0FF303C
:100E200000E010D0401C33D057B3029858B90127C6
:100E300052460021384600F00DF928402140084371
:100E400000D10027E7B101205246002100F002F94D
:100E5000024640190B4661412D1A8C4111D3BAF15B
:100E6000400F09DD159810F0240F02D0ABF13406C5
:100E700003E0ABF1170600E0761C00254FF00044BC
:100E800006E0541EE54343F1FF32054021EA020427
:100E9000CBF10100B04206DA1D49039808430190E6
:100EA000002000900EE0039AC4F3D321E80A0A431D
:100EB000184940EA44500A433146CDE900026846E9
:100EC0000AF0A8FA159810F0240F0DD01598C00755
:100ED00019D1D8F80000DDE90012031DC8F8003070
:100EE0000068C0E900120EE002A869460AF099F90C
:100EF0001598C00707D1D8F80000029B011DC8F85B
:100F00000010006803604846F6E6000002FCFFFFA0
:100F10000000F07F0000F03F2DE9FF4F91461D4695
:100F200085B04FF00042DDE9124BDDE914717F1E00
:100F300002EA4B50434A40F0FF4A40EA02080022CE
:100F400021F020004928049202D04E282BD04FE0F7
:100F50003DA00126D0E9001280680091CDE9012072
:100F6000A9690698641C88477F1E014606D41DF8AF
:100F7000060018B121F0200181420BD0E9690698E2
:100F80008847032E34D0082E32D06FF0010009B00C
:100F9000BDE8F08F761C032E01D0082EE0D1601C36
:100FA000C9F80000DCE7A9690698641C88477F1E21
:100FB0002AD420F02000412826D1A9690698641C73
:100FC00088477F1E20D420F020004E281CD1A9691C
:100FD0000698641C88477F1E48F400284AF4800A5B
:100FE000C9F8004001D4282806D0E9690698884746
:100FF0005FEACB7012D022E0A9690698641C88478A
:101000007F1E01D4002803DAE96906988847BCE707
:101010002928F1D1641CC9F80040E9E71BF0240F2E
:1010200007D028680499031D2B600068C0E90018E8
:1010300005E02868021D2A600068C0F800A020466C
:10104000A5E700000000F07F494E46494E4954593B
:1010500000000000B2F120030AD5C2F1200301FA1A
:1010600002F120FA03F300FA02F041EA03017047AB
:1010700000FA03F14FF00000704720F07F4C80EA47
:10108000030023F07F47ACEB070303F57C5300F02C
:10109000004003F1FF032DE980494FEA154B09B4E5
:1010A0004FEA144325EA0B4E24EA03480FF20426C4
:1010B00006EB132749083E785FEA320203FB066716
:1010C000C7F5000707FB06F64FEA54374FEAD64646
:1010D00006F1020607FB066CCCF1005C4FEA1C47E8
:1010E0002CEA074C07FB06F40CFB06F504EB15464F
:1010F0004FEA961634BF00204FF000404FEAD13738
:1011000006FB07FC4FEA1C4C0CFB0BF7D21B03FB46
:101110000CF761EB07010CFB0EF7B0EB074072EB2D
:1011200017420CFB08F734BFA2EB0742B2EB0742B1
:1011300061EB17414FEA0C444FEA910706FB07FCAD
:101140004FEA1C4C0CFB0BF7B0EBC74072EB57326D
:1011500003FB0CF734BFA2EBC742B2EBC74261EB13
:1011600057310CFB0EF7B0EBC70072EB57720CFB5C
:1011700008F734BFA2EBC702B2EBC70261EB5771AD
:10118000039F4FEA816141EA921104EBCC044FEADC
:10119000D1374FEA826206FB07FC42EA90124FEA1F
:1011A00080604FEA1C4C0CFB0BF7D21B03FB0CF7C7
:1011B00061EB07010CFB0EF7B0EB074072EB174237
:1011C0000CFB08F734BFA2EB0742B2EB074261EB1E
:1011D00017414FEA8C554FEA910704EB9C2406FB1C
:1011E00007FC4FEA1C4C0CFB0BF7B0EBC74072EB53
:1011F000573203FB0CF734BFA2EBC742B2EBC74236
:1012000061EB57310CFB0EF7B0EBC70072EB577276
:101210000CFB08F734BFA2EBC702B2EBC70261EBCD
:10122000577115EB4C254FEA816141EA92114FEA63
:1012300082624FEAD13742EA901206FB07FC44F182
:1012400000044FEA80604FEA1C4C0CFB0BF7D21BEA
:1012500003FB0CF761EB07010CFB0EF7B0EB07404B
:1012600072EB17420CFB08F734BFA2EB0742B2EB5C
:10127000074261EB174115EB1C154FEA813141EA3A
:1012800092414FEA823242EA90424FEA80304FEA7E
:101290000C7644F1000448EA03434EEA0B484FF051
:1012A000000EB2EB080C71EB030724BF624639460F
:1012B0004EEB0E0E4FF0000B0018524149414BEB24
:1012C0000B0BB2EB080C71EB03077BF1000B24BF97
:1012D000624639464EEB0E0E4FF0000B001852419D
:1012E00049414BEB0B0BB2EB080C71EB03077BF1A5
:1012F000000B24BF624639464EEB0E0E51EA020740
:1013000018BF46F0010616EB0E7655F1000254F1B7
:10131000000103D5BDE88901BDE80088BDE8890169
:10132000BDE80048B619524141EB0101A3F10103A8
:10133000704780807F7E7D7C7B7A79787776767542
:101340007473727171706F6E6E6D6C6C6B6A6A69BA
:101350006868676666656464636362616160605F54
:101360005F5E5E5D5D5C5C5B5B5A5A5959585857CD
:101370005756565555555454535352525251515035
:1013800050504F4F4F4E4E4D4D4D4C4C4C4B4B4B88
:101390004A4A4A49494948484847474747464646CE
:1013A0004545454444444443434343424242424109
:1013B0004141000046EA0646A3F570534FEA16463F
:1013C00046EA42564FEAD22242EA415210B54FEA6B
:1013D000D121A3F1010300F017F820F0004000F143
:1013E000010C00F0004701EB00501146BCF5006F06
:1013F00040EA070000D210BD02484FF0000140EA69
:10140000070010BD0000F07F002B26D4770021D00C
:101410001CB54FEA370703B44FF010004FF010012E
:101420004FF000000FBCBDE810400BF1010BBBF109
:10143000010F08BF5FEA170722BF12F1010211F185
:1014400001014FF0004143F1000300F0004043EA86
:1014500000007047F9D35708DAE746EA064613F169
:10146000400F4FEA16461FDD13F1200FDFBF164372
:101470000A46002120335B42C8D0C3F1200746EA68
:10148000064602FA07F74FEA164646EA0706C3F190
:10149000200722FA03F201FA07F721FA03F14FF0CD
:1014A000000342EA0702B1E746EA020646EA0646B8
:1014B0004FEA164646EA0106BCBF46EA0646360C27
:1014C0004FF000034FF000024FF000019EE72DE9BE
:1014D000C048934630B491E8380007C831EA400C60
:1014E00048BF34EA430C03D5FFF7C7FDFFF78CFF75
:1014F000F0BCBDE800882DE9C048934630B491E8BF
:10150000380007C831EA400C48BF34EA430C03D521
:10151000FFF7B3FDFFF74EFFF0BCBDE800882DE9F3
:10152000C048934630B491E8380007C810F0804FA7
:1015300008BF13F0804F03D100F019F8FFF764FFE4
:10154000F0BCBDE800882DE9C048934630B491E86E
:10155000380007C810F0804F08BF13F0804F03D148
:1015600000F005F8FFF726FFF0BCBDE8008820F08A
:101570007F4780EA030023F07F4C07EB0C03A3F5C1
:101580007C5300F00040A3F1FE0392F0000F00F046
:10159000B38095F0000F00F077802DE901494FEA04
:1015A00011404FEA144621EA004800FB06FC24EAF9
:1015B000064708FB06F607FB08F800FB07F718EBE1
:1015C00006484CEB164C4FEA124B18EB07484FEA13
:1015D00015464CEB174022EA0B4E0BFB06FC25EAA6
:1015E00006470EFB06F607FB0EFE0BFB07F71EEB8E
:1015F000064E4CEB164C4FF000061EEB074E4CEB24
:10160000174B18EB0B0840F1000018EB0E0B58EBD2
:10161000000840F100008F1A4FF000013CBFC943A1
:10162000661B14BFB5EB040C00213CBFC943F61B7D
:101630004FEA17444EEA8E0E27EA04454FEA1C474C
:1016400004FB07622CEA074C05FB07F70CFB05F6C9
:1016500004FB0CFC16EB074642EB174216EB0C465C
:1016600042EB1C421BEB060658EB0202414146EAE4
:101670009E0601D5BDE80189B619524141EB010131
:10168000A3F10103BDE801894FEA14454FEA114770
:1016900024EA054621EA074C05FB07F406FB07F799
:1016A0000CFB06F105FB0CFC11EB074144EB174466
:1016B0004FEA124711EB0C4144EB1C4422EA074C61
:1016C00005FB07F206FB07F70CFB06F605FB0CFC17
:1016D00016EB074642EB174216EB0C4642EB1C4555
:1016E0006A1854F1000148BF7047B619524141EBE6
:1016F0000101A3F10103704795F0000F37D04FEAC5
:1017000011424FEA144721EA024624EA074C02FB41
:1017100007F106FB07F70CFB06F402FB0CFC14EBCD
:10172000074441EB17414FEA154714EB0C4441EBDA
:101730001C4125EA074C02FB07F506FB07F70CFBEB
:1017400006F602FB0CFC16EB074645EB174516EBBD
:101750000C4645EB1C42121951F1000148BF70477D
:10176000B619524141EB0101A3F1010370474FEA61
:1017700014454FEA114724EA054621EA074C05FBC8
:1017800007F106FB07F70CFB06F24FF0000605FB1E
:101790000CFC12EB074241EB174112EB0C4251EBF0
:1017A0001C4148BF7047921841EB0101A3F10103AE
:1017B000704770477047000070B50D4620490024FF
:1017C00001EB4006B61C1F4800F022FDA0F252308B
:1017D00040420A21B0FBF1F0A84216D2002105E0F8
:1017E00001EB8102491C36F8222014448142F7DBC8
:1017F000401B553006E000BF00EB8001401C36F86E
:1018000021100C445528F7DB0AE0012106E0421ABA
:1018100002EB8202491C36F822201444A942F6D970
:1018200028460BF061FE054620460BF05DFE06499A
:101830000BF0A2FE2946BDE870400BF03FBD000052
:10184000781100200800024034A5393A0029816847
:1018500002D041F0010101E021F0010181607047F7
:1018600038B50121084602F0DDFD01214FF4037077
:1018700002F0F0FDF720ADF8000000248DF80340E1
:1018800069464F4801F032FD0320ADF800008DF8A5
:10189000034069464B4801F029FD4B4D284600F0B6
:1018A0004BFC4B4949480860A1F2E260C1E90104E0
:1018B00040F25230C1E90304802048614000886151
:1018C0008000C861202008624FF44050C1E909043B
:1018D000284600F0B9FC0121284600F023FC3C48D2
:1018E00001211438394D0460017141714FF46021B8
:1018F000C0E902140A21017401464C3D284600F05B
:1019000083F8052301220421284600F08BF90523E2
:1019100002220621284600F085F9052303221946F4
:10192000284600F07FF9052304220121284600F013
:1019300079F905231A460021284600F073F905239A
:1019400006220221284600F06DF9072205231146E0
:10195000284600F067F9052308220921284600F0EF
:1019600061F9052309220821284600F05BF90523C7
:101970000A221021284600F055F90121284600F0DE
:101980002BF8012000F0CEFA01212846FFF75EFF78
:10199000284600F081F9284600F02FF80028FAD1F7
:1019A000284600F0B9FA284600F020F80028FAD1BD
:1019B0000121284600F0A6FA0648047038BD000050
:1019C00000080140000C0140080002404C24014086
:1019D0005C180020781100200029816802D041F4B1
:1019E000807101E021F48071816070470146002020
:1019F0008968490700D501207047014600208968A1
:101A0000090700D50120704710B542680E4B0C79CC
:101A10001A400B6842EA04221343436082680B4B6E
:101A20001A40D1E9024323434C7942EA440213436A
:101A30008360C26A097C22F47002491EC9B242EA7C
:101A40000151C16210BD0000FFFEF0FFFDF7F1FF84
:101A50002DE9F04F85B00024674D01E0032C01D241
:101A60002D2100E055212046FFF7A6FE45F8240071
:101A7000641C0A2CF2D3604E0024DFF88081DFF86A
:101A80008091DFF880B128364FF0FF3AD8F8000097
:101A90004FF08001C00748467ED001F0A4FC55F805
:101AA000240056F8241007460BF02CFF51460CF08A
:101AB00000F859460BF094FE45F8240046F82470CF
:101AC000641C032CE2D300204F4955F8202001EB81
:101AD0008003C3F83423401C0A28F5D34B48006820
:101AE00020F00040D0F1FF405AD54948D0E9002409
:101AF000944255D2641C44600025601E0BF0C5F86A
:101B000002908B4620460BF0C0F880460C463E48BB
:101B100000EB8500D0F834030BF030FB3D4A02EBBC
:101B2000C5030393D3E9002391469A460BF03CFA90
:101B300006460F4602460B460BF0F6F85B46029A45
:101B40000BF0F2F8424623460AF0AEFECDE9000162
:101B500030485946503000EBC5030493D3E90023C5
:101B600002980BF0E1F8DDE900230AF0E1FD4246BE
:101B700023460AF099FE049B4246C3E9000123462E
:101B8000304639460AF090FE4A4653460AF0D0FDE8
:101B9000039BC3E9000100E01DE06D1C0A2DB6D3D4
:101BA00072B61D4C94F8F40064280ED004F0B6FF11
:101BB0001A4AC2E900011A490968411A1248C0F8D4
:101BC000F812D0F8F802C4F8F80262B605B0BDE821
:101BD000F04F05F09DBC01F008FC55F8240056F8C4
:101BE000241007460BF08EFE51460BF062FF59465B
:101BF0000BF0F0FA60E700003811002084010020AB
:101C0000000C01409A99B93FC80C002038F8000830
:101C100058010020B01800205C080020200100209E
:101C2000F800002070B5072509290AD9C468A1F178
:101C30000A0606EB4606B540AC43B3401C43C460FD
:101C400007E0046901EB4106B540AC43B3401C43D7
:101C500004611F23072A09D2446B521E02EB820241
:101C600093409C4391400C43446370BD0D2A09D2BC
:101C7000046BD21F02EB820293409C4391400C43C1
:101C8000046370BDC46A0D3A02EB820293409C4328
:101C900091400C43C46270BD816841F008018160CD
:101CA000704700002DE9FF5FDFF81892D9F858134C
:101CB000854800680BF060FC8349091D09680BF03A
:101CC00089FADFF808B2DFF808A2CBF8000000902C
:101CD000DAF808405046641CCAF80840A04600697B
:101CE0000BF04CFA0E460746C82C18D840460AF0AE
:101CF000CCFF0D4604460022764B0BF055F93A46D0
:101D000033460BF011F806460F4600980BF036FAF2
:101D100032463B460AF00CFD22462B460EE00022DE
:101D20006D4B0BF001F804460D4600980BF026FAB7
:101D300022462B460AF0FCFC0022684B0AF0B4FD58
:101D40000AF0C4FC664CCAF810005546C4F880037B
:101D500064490BF0D7FD014600900BF00DFC01909B
:101D600000990BF009FC39278246B8F1010F00D029
:101D70000327A8460026ED6829E05B48514650F845
:101D800025000BF0F9FB029057480199E43850F810
:101D900025000BF0F1FB03904B480099083050F8F8
:101DA00025000BF0E9FB4849E43951F825100BF008
:101DB00011FA03990BF00EFA02990BF00BFA4B494A
:101DC00041F825006D1C392D00D30025761CBE423C
:101DD000D3D3C8F80C5099F8111147464D464448E2
:101DE000804631B90246414800234249603006F03E
:101DF0006FFA95F812013E4E0C3630B93D493E4B14
:101E000032460C31394806F063FA95F8130140B9AF
:101E1000374B38493548183332461831903006F080
:101E2000F0F9DFF8A090002509F1CC0905EB450099
:101E300004EB800101F55771484607F05DFA6D1C0F
:101E4000032DF3D32D49022004EB8002D2F85C234A
:101E500041F82020401EF7D209F08EF810B141461B
:101E600007F076FA17483146843007F071FA1F4EB2
:101E7000B868C83E01281AD0214909258846CBF800
:101E8000001000BF04EB850056F82570D0F85C0305
:101E900039460BF037FD41460BF06EFB39460BF02F
:101EA00099F946F825006D1EECD2BDE8FF9F092088
:101EB00004EB8001D1F85C1346F82010401EF7D2E5
:101EC000F3E700005C0800201CF900086C110020FA
:101ED000580100200000F03F00E068400000694029
:101EE000C80C00200000C841ECFA0008501900207E
:101EF00024100020900B00203333D33FA82D002066
:101F00000AD7233C0029816802D041F4A00101E0F6
:101F100021F4A00181607047816841F00401816073
:101F20007047000005490028086802D040F400000E
:101F300001E020F400000860704700000824014020
:101F400038B5084C02F03AF9074B0848A3F10C02E7
:101F5000A2F10C01009407F097FFBDE8384002F0B1
:101F60007DB800000AD7A33BD00B0020601D0020E5
:101F7000FEE77047704710B50446002002460EE0A9
:101F8000030A43EA0023A05C5840C0F303135840FF
:101F900080EA003080B2C3B280EA4310521C8A4209
:101FA000EED310BD034610B50020024602E09C5C53
:101FB0006040521C8A42FAD310BD0288130A43EAD9
:101FC00002224A40C2F303114A4082EA0231CAB2F5
:101FD00081EA42110180704770B53048006820F0F6
:101FE0000040D0F1FF4002D42D490120087002F0DA
:101FF00045FA01F059FF04F021FF4FF4FA7001F0A7
:10200000FBF901F00FF9FFF72BFC03F03BFA04F0AA
:1020100057FC244C0421204601F0DEF910B102F0F7
:1020200005FC01E001F05EFA05F0DCF91E4802F063
:1020300033FD1E4804F028FD03F0DCFA1A48FC3892
:10204000D0F8F0004FF040010028204622D001F0E7
:10205000CCF98021204601F0C6F941F288352846A6
:1020600004F058FD8021204601F0BFF9284604F015
:1020700051FD8021204601F0B6F9284604F04AFDC2
:102080008021204601F0B1F901F0D2F9BDE870409D
:1020900008F0A4BE01F0A7F9DBE7000038F800085B
:1020A00000000020000C0140580900204D310008BC
:1020B000704770477047000010B54FF40054204639
:1020C00000F0AAF8012809D1204600F01FF80449C1
:1020D00001200871BDE8104004F0B6BA10BD000040
:1020E0006000002070477047704770477047704726
:1020F00070470000C10002D50249086070470249DC
:10210000486070470404024000000240C10002D54C
:102110000249086070470249486070470404024061
:10212000000002400029016802D041F0010101E0F5
:1021300021F0010101607047016821F00101016097
:102140000021016041608160C1602D4B2C49C21AA1
:102150008039984243D018DC2A4BA0EB0302984206
:1021600035D00ADC284A801829D014282BD02828FA
:1021700024D1486840F4706034E0142A2BD0282A17
:102180001CD1486840F470002CE02048B2F56C7F08
:102190002ED009DCB2F5627F26D0B2F5677F0DD173
:1021A000016841F0F00108E0B2F5717F24D0B2F58A
:1021B000767F03D1016841F470210160704748685F
:1021C00040F00F000EE0486840F0F0000AE0486878
:1021D00040F4704006E0486840F4702002E048682F
:1021E00040F0706048607047016841F00F01E4E71B
:1021F000016841F47061E0E7016841F47041DCE797
:102200008000024044000240F8FFFDBF0404024089
:10221000406880B27047000001460020CA0001D526
:10222000034A00E0034A12680A4200D001207047C6
:102230000004024000000240002A026801D00A4364
:1022400000E08A430260704730B5036847F6F072D9
:1022500093430C6A8A682243D1E904452C43224304
:102260008C692243CC6922434C6A22438C6A224304
:102270001A430260CA6842600A6882604968C160A5
:1022800030BD7047704700002DE9F04F8DB004203D
:1022900001900320009000254FF4004000F058FE0C
:1022A00000287ED04FF4004000F044FEF84F38463E
:1022B000FFF7AEFFC0F5BA708146042872D3041F41
:1022C0003846FFF7A5FFC0F5BA70642148434FF4C4
:1022D000BA7190FBF1F0EF4E96F8D212884202DA12
:1022E00096F8D2020AE03846FFF792FFC0F5BA70BE
:1022F000642148434FF4BA7190FBF1F0B24686F87E
:10230000D202E54902204FF000084A68096800EB54
:10231000920001E041F82080401EFBD2DF4890F897
:10232000F900DF4E012806F5BA7705D0DB4890F8B2
:10233000F90002280BD016E0A9F10101D848FFF7F7
:1023400031FE06EB0901641E11F8011C09E0A9F138
:102350000201D348FFF70FFE06EB0901A41E31F876
:10236000021C814270D1B1463078CE4ECE494FF03A
:10237000010B0E2869D2DFE800F0686007EFEEED90
:10238000EC68EBEAE9E8E7E6387099F80100222802
:1023900071D020DC18287AD013DCC44907285BD020
:1023A00001E0FDE3FDE305DCA0B3052846D00628E7
:1023B00072D14BE0152855D016285ED01728F7D1DA
:1023C00060E01938092867D2DFE800F0676C6671B1
:1023D000668C939CA5002C2878D00ADCA0F1230001
:1023E0000928F0D2DFE800F0A5AAB9BEC3C8585842
:1023F000CD00F6286BD006DC2D2869D0302868D0B7
:10240000F228D5D1D0E0F72871D0F82870D0FC2878
:10241000CED1E1E0FFE71421142C00D2214601AA1D
:102420009C4804F0C1F9142C07D2504603E000BFC9
:1024300000F80480641C142CFAD3FDE0D9F80400E1
:10244000486081F800B0FBE0F7E3F7E399F8040097
:10245000487281F808B0F3E099F80400C87281F876
:102460000AB0EDE08B4801AA0621B43004F0AEF9C1
:1024700086F807B0E0E058E009E086480A2101AAA2
:102480001C30A6E083480C2101AA5430A1E0814809
:10249000042101AA44309CE0CCE07E480C2101AA32
:1024A000843096E07B48092101AACC3091E0D9F82C
:1024B0000400022811D2CAF8F0007D4A00284FF02B
:1024C0004001104606D000F090FFB5E05DE072E0FC
:1024D00060E064E000F087FFAEE00725284604F0E6
:1024E00069FBA9E06B48072101AAF43060E067E0CE
:1024F0006BE001AA2C2102A804F056F902A802F010
:1025000021FA10E001AA142102A804F04DF902A852
:1025100002F0C2FA07E001AA0C2102A804F044F973
:1025200002A802F0EBFA054686E001AA10216148F4
:102530003EE06048042101AA103039E05D480921DD
:1025400001AA143045E0FCE3FCE3FCE3FCE3EAE32E
:10255000D4E3CAE3C0E3B0E3A6E35648092101AAE5
:10256000383036E05348092101AA5C3031E0514847
:10257000092101AA80302CE04E48092101AAA4308B
:1025800027E001AA03214C4823E04B48032101AA7C
:102590000C300DE04848142101AA103008E04648EC
:1025A000082101AA703003E0434801AA0C217830C9
:1025B00004F0FAF840E04048042101AA383808E065
:1025C0003D480A2101AA283803E03B4801AA0D2111
:1025D0006C3804F0FBF82FE0317A384811B101AAC9
:1025E0000A21F6E72D4C94F8111129B994F812112B
:1025F00011B994F81311E9B194F8111119B101AAA4
:10260000032104F0E3F801980C30019094F81201D2
:1026100028B12A4801AA03210C3004F0D7F8019808
:102620000C30019094F8130130B12448032101AA21
:102630001830CEE7082551E799F8000001281CD092
:10264000144E00BF99F80010397099F801401F2C02
:102650007ED014DC7DD2DFE804F04C536369828FB6
:10266000949CA3A3A3A3A3A3A3A3FEA3A3A3A3FD9B
:10267000FCFBFAF9F8A3F7A3F600084EE2E7302CCA
:1026800068D027DCA4F120001028E3D218E0000075
:102690001C000240C80C00206C0100205C080020D7
:1026A000341A002046010020602D0020E0000020A8
:1026B000000C0140D80D00200C0F00202410002039
:1026C000DFE800F0FDFCFBFAF9F8F7F6F547F4F364
:1026D000F2F1F0EFA4F1EF011129BBD2DFE801F034
:1026E000606060F93939F8F7F6F5F439F360F2F122
:1026F000F00087F80180BD706A461421304651E130
:1027000087F801B0F94ABD70002000BF009912F8A7
:102710001030401C7B54491C00911828F6D3A1E2CC
:1027200002207870F148BD7030300FE003207870DF
:10273000EF48BD706946006804F098F8EC486946B7
:10274000001F006804F092F8E9480838006802E0C9
:102750002BE17FE2A9E1694604F088F882E20420D7
:102760007870BD7087F803B087F804B08C2078715A
:1027700087F80680009809E005207870BD707069C0
:10278000E5E706207870BD70317E06E0001D009000
:1027900068E207207870BD70717E00983954F5E7C3
:1027A0007C70BD70082C09D01B2C07D01D2C05D0C7
:1027B000F12C03D0EF2C01D0F02C05D16A46032177
:1027C00006F5617004F034F8092C0BD00A2C09D0FE
:1027D0000B2C07D00C2C05D00D2C03D00E2C01D0C7
:1027E0000F2C0BD16A46042106F5707004F020F816
:1027F0000A2C0DD00D2C0BD00F2C09D0112C07D08A
:10280000142C05D01B2C03D01D2C01D0FC2C05D181
:102810006A46032106F5577004F00AF8F12C1BD024
:102820000B2C1FD00D2C1DD00E2C1BD00F2C19D013
:10283000122C17D0142C15D01B2C13D01D2C11D0FA
:10284000FC2C0FD014E0A6E09FE096E08DE084E041
:102850007BE072E069E060E06A460321A54803F08E
:10286000E7FF37E06A46032106F55A7003F0E0FF00
:10287000F12C2FD0EF2C31D0F02C35D00C2C3BD0BC
:102880000E2C39D00F2C37D0132C35D0142C33D03C
:102890001B2C31D0F12C2FD0EF2C2DD0F02C2BD0A5
:1028A00030E0FAE0F1E0E8E0DFE0D6E0CDE0C4E0DF
:1028B000BBE0B2E0A9E0A0E097E08EE085E07CE03C
:1028C000BDE1A9E1A0E197E12AE121E118E104E1FC
:1028D000FBE0F2E06A46032187480BE06A460321E9
:1028E000864841F2100304E084486A46032141F21D
:1028F0000403184403F09CFF6A46032106F56D703B
:1029000003F096FF1D2C01D0FC2C05D16A46042152
:1029100006F55D7003F08CFFA4E110207870BD70A7
:102920006A46092106F56470F4E715207870BD70D9
:102930006A46062106F1B400ECE716207870BD70F7
:102940006A460A2106F11C00E4E717207870BD7082
:102950006A460C2106F15400DCE718207870BD703F
:102960006A46042106F14400D4E719207870BD704E
:102970006A460C2106F18400CCE71A207870BD70FD
:102980006A46092106F1CC00C4E71C207870BD70AE
:10299000D6F8F000DBE61E207870BD706A4607218D
:1029A00006F1F40003F028FF5CE11F207870BD7091
:1029B0006A462C2106F53270F4E720207870BD704D
:1029C0006A46142106F1FC00ECE721207870BD7006
:1029D0006A460C2106F53D70E4E722207870BD7050
:1029E0006A46102106F58870DCE723207870BD70F8
:1029F0006A46042106F59070D4E724207870BD70F3
:102A00006A46092106F5927084E725207870BD702A
:102A10006A46092106F5A4707CE726207870BD700F
:102A20006A46092106F5B67074E727207870BD70F4
:102A30006A46092106F5C8706CE728207870BD70D9
:102A40006A46092106F5DA7064E72A207870BD70BD
:102A50006A461C2106F54070A4E72B207870BD70F3
:102A60006A46032106F5117054E72C207870BD707A
:102A70006A46032106F5147094E72D207870BD7026
:102A80006A46142106F515708CE72E207870BD700B
:102A90006A461C2106F51A7084E72F207870BD70F5
:102AA0006A460C2106F5217034E730207870BD703D
:102AB0006A46082106F52D7074E7F2207870BD7023
:102AC0006A460C2106F52F706CE7F5207870BD7012
:102AD0006A46062106F547701CE7F6207870BD703F
:102AE0006A46042106F5037014E7000000F80008A8
:102AF000F0F7FF1F282600201C290020601D002061
:102B0000F7207870BD706A460A2106F5077001E764
:102B1000F8207870BD706A460D2106F5EC70F9E674
:102B2000D94881680320B1FBF0F200FB1214F920B0
:102B30007870BD706A46032106F5617003F078FE77
:102B40006946E0B203F09CFEDFF8408308EB8405A1
:102B5000D5F8900B0AF090FCC0B2694603F090FEE5
:102B6000D5F8840E0AF088FCC0B2694603F088FEEE
:102B70006946D5F8EC0F03F051FE6946D5F8BC085C
:102B800003F04CFE6946D5F8D80803F047FE6946C5
:102B9000D5F8B00B03F042FE6946D5F8CC0B01E046
:102BA00063E15EE103F03AFE6946686D03F036FECC
:102BB00008EB0416694656F86C0F03F02FFE6946C1
:102BC000706A03F02BFE6946B06C03F027FE69467D
:102BD000F06E03F023FE6946D5F8540103F01EFEA3
:102BE000C4EBC40108EB8100D0F8E00109F0F2FB6E
:102BF000694603F013FE35E0FB207870BD706A462D
:102C00000A2106F54D7085E6FD207870BD706A4694
:102C1000072106F570707DE6FE207870BD700024F7
:102C2000C4EBC40006EB80006946D0F8DC0303F077
:102C3000F5FD641C062CF3D314E0E1E0D8E0FF219D
:102C40007970BD7099F8020091496A4601EB8000E5
:102C500004215FE67C700820B870BAF8E412491CC1
:102C6000AAF8E4128B4C94F8F600012806D002284A
:102C700007D003280FD0642808D102E0D4F8F4026A
:102C800001E0D4F8F802694603F0F0FD94F8F7008B
:102C9000012803D0A1E0D4F8FC02F4E7B4F8000363
:102CA000694603F0D9FD98E00320387087F8018069
:102CB00087F8028008F070FA8FE00420387087F8F7
:102CC000018087F8028000F0BBFB03F0C7FE01F033
:102CD000ADFD03F0CFFE80E00520387087F801805D
:102CE00087F8028086F803B077E00620387087F80E
:102CF000018087F8028001F02FF96EE0082038701B
:102D000087F8018087F8028099F8010008B101284E
:102D100014D10862DAF80023514660F3CB221AE09E
:102D200003F048FF59E00920387087F8018087F8E0
:102D3000028099F8010040B1012806D00720B87040
:102D4000EEE722E00CE042E008E04862DAF8002317
:102D5000514660F30C32C1F800233EE00A2037E010
:102D60000C20387087F8018087F8028003205246D3
:102D7000484907E001EB8003D3F8D03302EB80042D
:102D8000C4F84432401EF5D227E00D20387087F891
:102D9000018087F8028099F8011030463172317A4B
:102DA000012906D0017A022909D0007A032809D026
:102DB00013E080F805B03848C0F8008004E000F067
:102DC000C5F90AE008F068F904F07EFB05E00B2085
:102DD000387087F8018087F802802E4890F8F91043
:102DE000012914D090F8F9000099022817D020E0AA
:102DF000387099F8010078700720B87004208FE7C8
:102E000031783970707878700320B87088E723487B
:102E10000099FFF7C7F800997854491C08E01F484B
:102E2000FFF7A9F80099020A7B185A707854891C98
:102E30000091642041434FF4BA70B1FBF0F09AF86E
:102E4000D3125446884201D294F8D30204F5337465
:102E5000E07103F0A9FD0C48009941602068401C16
:102E600020604FF4004000F05FF80A4890F8041129
:102E7000042903D090F80401052801D104F06EF96B
:102E80000DB0BDE8F08F00006C010020601D002037
:102E900038F800085C08002084010020A81B0020EE
:102EA0007047000010B5042000F052F800280AD046
:102EB000042000F03FF804490120C870BDE810402C
:102EC000024802F03DBC10BD46010020A1000020D8
:102ED00070B5104C01206070082000F02BF82078AD
:102EE000002590B10C48007878B90C48C189491C7C
:102EF00089B2C1818289914207D1C581084890F881
:102F0000FC00022801D003F073FE6570BDE870403C
:102F100002F028BC000000204401002046010020EF
:102F20005C08002070477047014908607047000046
:102F30001404014001490860704700001404014076
:102F400002490A6802430A60704700001004014009
:102F5000064A014600201268044B0A4014331B68DD
:102F60000B4202D0002A00D001207047000401402B
:102F700030B583791949026853B30B6893430B60EA
:102F80000A1D13680468A343136002790A44136896
:102F9000046823431360114A083213680468A3438A
:102FA0001360131D1C680568AC431C604479102C29
:102FB00005D021440A68006802430A6030BD1168E8
:102FC000046821431160196800680143196030BD2D
:102FD0000079084401689143016030BD000401405C
:102FE00070B5054640F6FF76304600F099F80428A3
:102FF00013D10A4C206940F002002061656120690C
:1030000040F040002061304600F08AF8012804D0EA
:10301000216941F6FD721140216170BD002002401E
:1030200008490420CA68D20701D001207047CA6845
:10303000520701D502207047C968C906FBD5032095
:1030400070470000002002407047000002480169FC
:1030500041F08001016170470020024004490A6884
:1030600022F010020A600A6802430A6070470000FA
:103070000020024070B505460E460F2000F050F8C3
:1030800004280FD1084C206940F0010020612E80F7
:103090000F2000F045F8012804D0216941F6FE72A6
:1030A0001140216170BD000000200240F0B50646CD
:1030B0000D460F2000F034F8042816D10B4C20697F
:1030C00040F00100206135800F2000F029F841F622
:1030D000FE77042804D1280C70800F2000F020F81F
:1030E000012802D0216939402161F0BD0020024051
:1030F00004490A6802F038020A600A6802430A605A
:103100007047000000200240034802494160034923
:10311000416070472301674500200240AB89EFCD35
:1031200000B50346FFF77CFF05E0FF20401EFDD100
:10313000FFF776FF5B1E012803D0002B00D105208E
:1031400000BD002BF1D1FAE77047000070B52D4E9D
:103150003068401C306003F0E1FC2B4A2B4CC2E984
:10316000000194F8F400642807D104F077F82849A6
:103170000968081A2749C1F8F80294F804010128DF
:1031800001D103F0EBFF244D287A08B9FEF760FC6B
:103190002248007810B12248007830B10820FFF7AB
:1031A000CFFEBDE8704004F08FB9287A08B9FEF769
:1031B00079FD04F097F994F80401022803D094F8FB
:1031C0000401042801D103F0C9FF30680A2802D89D
:1031D000287A002814D0FEF7B3FE04F075F994F8AD
:1031E0000401032803D094F80401052801D103F059
:1031F000B5FF01202870BDE870400820FFF7A0BE91
:1032000070BD000084010020180100205C0800202F
:103210003C010020C80C00204601002000000020D6
:1032200044010020F8B501210D2001F013F901211E
:10323000214800F0ADF84020ADF8000010251F4EE9
:103240008DF8035003248DF802406946304600F0A3
:103250004DF88020ADF800008DF803508DF8024045
:103260006946304600F042F80421ADF800108DF8B0
:1032700003108DF802406946304600F037F8280107
:10328000ADF800008DF803500D4D8DF802406946F1
:10329000284600F02BF8A814ADF8000028208DF87F
:1032A00003008DF802406946284600F01FF802210D
:1032B000012000F007F8F8BD00043000000C0140C8
:1032C0000008014010B58A0721F003040649130FD6
:1032D00021440F228C689A4094438C608A689840FD
:1032E00002438A6010BD0000000001402DE9F0415A
:1032F000CB78002503F00F02DB0601D58B781A434B
:103300000B884FF00F0813F0FF0F4FF0010C1CD08B
:10331000D0F800400E880CFA05F31E409E4210D1F2
:10332000AF0008FA07F624EA060602FA07F4344367
:10333000CE78282E02D0482E02D002E0436100E071
:1033400003616D1C082DE5D304600B88FF2B1DD98C
:103350004468002505F108060CFA06F30E881E40A5
:103360009E420FD1AF0008FA07F624EA060602FAD9
:1033700007F43443CE78282E00D14361CE78482E0E
:1033800000D103616D1C082DE4D34460BDE8F081D9
:10339000F0B5104D6B68440D260184B2C0F301579F
:1033A000B440C0F30342032F05D0C0020AD5032066
:1033B0009040834307E0686823F0706220F07060FB
:1033C000686002E0A34343F0706201B122436A6087
:1033D000F0BD0000000001400246002092680A4251
:1033E00000D0012070474161704701617047FEE7DE
:1033F000704770477047704710B504467D2001F054
:10340000EFF820B101F032F80A2003F0D3FB45F2C7
:10341000555000F029F8012000F01AF804EB840060
:1034200080B200F01BF8BDE8104000F009B80000C1
:1034300002494CF6CC400860704700000030004064
:1034400002494AF6AA200860704700000030004098
:103450000149486070470000003000400149886021
:1034600070470000003000400149086070470000CC
:103470000030004010B54FF4327216491648FCF780
:1034800027FF16481649006820F00040D0F1FF429F
:103490004FF4E13048610AD40E220A7628224A7697
:1034A00001F0C6FA0E2001F013FA282009E00022EC
:1034B0000A76C8224A7601F0BBFA002001F008FA29
:1034C000C82001F0BDF901F011F9BDE8104003F08A
:1034D000FBBF000030DC0008C80C002038F80008F2
:1034E0005C08002010B54FF4327211491148FCF706
:1034F000EFFE01F0FBF81048006820F00040D0F12A
:10350000FF4007D50B484FF4E131416100210176BE
:10351000C821417603F0D8FF084C606901F088FAB1
:10352000207E01F0D5F9607E01F08AF9012010BDFE
:1035300000FC0008C80C002038F800085C080020D7
:103540002DE9FF4F93B000F234510C9148310791AF
:103550000C3109911646122100F5876400F5996A2D
:1035600000F5A26B00F2645500F5C67900F52B78E2
:10357000002201E044F82120491EFBD203231A4611
:10358000314600F53170009505F004FC21462846CF
:1035900005F09AFE00267348002700EBC600119044
:1035A0007048183000EBC600129006EB46000D90F4
:1035B00011984068C119129859F82110406854F8C0
:1035C000200009F0D9FF0090664850F83600C11974
:1035D000644859F82110183050F8360054F820008B
:1035E00009F0CAFF009909F0F5FD0D9907EB4102BA
:1035F0007F1C4AF82200062FDAD3761C032ECAD38A
:10360000082658489C3050F82610243850F82600D8
:103610005AF8211054F8200009F0AEFF074651482F
:10362000543050F82610243850F826005AF821104B
:1036300054F8200009F0A0FF394609F0CBFD4BF803
:103640002600761EDDD20826169850F826105BF864
:10365000260009F0BFFD4BF82600761EF4D20321A8
:1036600058460C9A05F022FA032020990346CDE92A
:103670000001062250460C9905F0E2FA062009994D
:103680000246CDE9000103235146209805F004FBD2
:103690002326099850F8261059F826000AF032F926
:1036A00049F82600761EF4D25FF00206149855F809
:1036B000261050F826000AF025F9219941F8260035
:1036C000761EF3D2D8F80810A06909F055FF064617
:1036D000D8F80410E06809F04FFF314609F07AFD90
:1036E0002860D8F80810E06909F046FF0646D8F8C7
:1036F0000010606809F040FF314609F06BFD68601A
:10370000D8F80410606909F037FF0646D8F80010B1
:10371000A06809F031FF314609F05CFD0224A86081
:10372000219855F8241050F824000AF0EBF8079976
:1037300041F82400641EF3D2032306220095079962
:10374000209805F027FB052455F8241058F824008C
:1037500009F040FD48F82400641EF5D217B0BDE81A
:10376000F08F0000F8DE00082DE9F14F92B01298BA
:10377000129E00F5A27B00F5B0700E900F9012988B
:10378000129D06F5BE76D0F88871406904901298B3
:1037900005F5077500F5C67A00F5876400F2BC49A7
:1037A00000F59C68FF483B46874200DA07460E98C2
:1037B000CDE9000432465846049905F099FB0E986D
:1037C000DBF8101001610F98DBF8141041610F98BD
:1037D000DBF8181081613946049809F0CDFE069097
:1037E00039464FF07E572060384609F067FD834622
:1037F0005946606009F0C0FE5946A06009F0BCFE61
:10380000E060069808F020FD2061206808F0DAF8F2
:1038100039460AF077F860618346216820690AF02A
:1038200071F80146A061E06809F0A6FEE061594622
:10383000A06809F0A1FE20623068014609F09CFEF4
:1038400060627068014609F097FEA062B0680146A8
:1038500009F092FEE0626168206909F08DFE206344
:10386000D6E9000109F088FE6063B168306809F0AC
:1038700083FEA063D6E9010109F07EFEE063D4E98E
:10388000090109F0A7FC2064D4E90A0109F0A2FCAF
:103890006064E16A606A09F09DFCA064216A606B63
:1038A00009F06AFEE064216AA06B09F065FE2065FC
:1038B000216AE06B09F060FE6065216A306809F0FA
:1038C0005BFEA065216A706809F056FEE065216A1A
:1038D000B06809F051FE2066216B306809F04CFE9B
:1038E0006066216B706809F047FEA066216BB068C6
:1038F00009F042FEE066E168A06909F03DFE20673C
:10390000E169E06B09F038FE6067216A606C09F0DC
:1039100033FE394609F05EFCC9F80000E06EE16C48
:1039200080F0004009F0EEFFC9F80400216DA06EA0
:1039300009F0E8FFC9F80800E16CE06E09F0E2FF69
:10394000C9F80C00216AA06C09F016FE394609F08E
:1039500041FCC9F81000606E616D80F0004009F014
:10396000D1FFC9F81400A06E216D80F0004009F06D
:10397000C9FFC9F81800616D606E09F0C3FFC9F88E
:103980001C00216A206C09F0F7FD394609F022FC81
:10399000C9F82000E169606C09F0EEFD049981F03E
:1039A00000460146304609F0ADFFC8F80000216F1F
:1039B000606B09F0E1FD216E09F0A4FFC8F8040076
:1039C000216FA06B09F0D8FDE16D09F003FCC8F888
:1039D0000800E169606B09F0CFFD216E09F0FAFB88
:1039E000C8F80C00E169A06C09F0C6FD014630463C
:1039F00009F088FFC8F81000A16D606F09F082FF20
:103A0000C8F81400E169A06B09F0B6FDE16D09F09A
:103A100079FFC8F81800616FA06D09F0DBFBC8F8EA
:103A20001C00E169206C09F0A7FD0146304609F051
:103A300069FFC8F820000020069000EB4000002637
:103A4000CDF8040006EB400B002144F82B100F4684
:103A500007EB470006EB400109910AEB8101069A4A
:103A6000896C1044089058F8200009F085FD0A90F0
:103A7000099908985AF8211059F8200009F07CFD9E
:103A80000A9909F0A7FB54F82B1009F0A3FB7F1C3F
:103A900044F82B00032FDBD3761C062E01D20198AD
:103AA000D0E70698401C06900328C6D30026B346EC
:103AB00001E0002036E006EB46010BEB410000215F
:103AC000039045F820100BEB4B000F46CDF820007B
:103AD00007EB4000019004EB8000C16807EB470052
:103AE0003044099058F8200009F046FD0A900198EA
:103AF00054F82010099859F8200009F03DFD0A9962
:103B000009F068FB039955F8211009F063FB0146A1
:103B100003987F1C032F45F8201001D20898D7E79F
:103B20000BF10100711C83468842C4D3761C032E1E
:103B3000BFD3E06845F8480F2069A8616069286331
:103B4000606A6860A06AE861E06A6863E06BA86028
:103B5000206C2862606CA863DAF85400E860DAF838
:103B60006C006862DAF88400E863DAF87000A86232
:103B7000DAF888002864DAF88C0068640499A5F102
:103B80004805084609F0F8FC20610749049809F047
:103B900095FB00276061002607EB470906EB490803
:103BA00004E00000ACC5273700004040129A09EB42
:103BB000060002EB800B2169DBF8200109F0DCFC38
:103BC0004FF0FF31206009F074FF05EB880ADAF846
:103BD000481009F005FECAF84800BE421DD8DBF8BF
:103BE000FC00049909F0C8FC05906169206809F09F
:103BF000C3FC059909F0EEFA55F8281009F0EAFA25
:103C000045F82800DBF82001049909F0B5FCDAF842
:103C1000541009F0DFFACAF85400761C032EBDD305
:103C20007F1C032FB7D313B02846BDE8F04F062101
:103C300005F0BEBB2DE9F04F9DB00446032009AD51
:103C40000DF10C080DAA11AB18AE15AF1AE000BFAC
:103C500004EB8001D1F824C042F820C0D1F830C074
:103C600043F820C0D1F83CC046F820C0D1F848C085
:103C700047F820C0D1F854C045F820C0D1F860C042
:103C800048F820C0401EE3D25FF0020604EB86072E
:103C9000D7F85411B86909F035FEC7F87C01761ED3
:103CA000F4D204F5BE700321149005F0ABF87C4A01
:103CB00020F0004104F5B07B04F5317AC4F88801A6
:103CC000914214DA5FF0060004EB8001401ED1F847
:103CD0004421C1F86021F7D25FF0230004EB80019A
:103CE000401ED1F88C21C1F81C22F7D206E02046F4
:103CF000FFF73AFD5146584605F0E3F920680027E2
:103D0000B0B106AA0DA9504604F01DFA0DAA06A9E5
:103D10005046089704F04EFE06AA11A9504604F03A
:103D200012FA11AA06A95046089704F043FE0B9711
:103D3000032111A805F066F80690032115A805F0E7
:103D400061F809AA07900321104605F074F803AA48
:103D50000321104605F06FF80326A9460FE04D46F3
:103D600059F82600069909F007FC45F82600454653
:103D700058F82600079909F0FFFB45F82600761E43
:103D8000EDD2052004EB8001401EC1F8AC72F9D2DF
:103D90005FF0230004EB8001401ED1F81C22C1F823
:103DA0008C21F7D2606860B104F5816104F53A7046
:103DB000CDE9000104F16C0309AA0DA92046FFF723
:103DC000BFFBA06860B104F5846104F55E70CDE9C5
:103DD000000104F1900309AA11A92046FFF7B0FBE6
:103DE000E06860B104F2144104F54C70CDE90001C3
:103DF00004F1B40303AA18A92046FFF7A1FB206928
:103E000060B104F22C4104F57070CDE9000104F1B9
:103E1000D80303AA15A92046FFF792FB04F5A27266
:103E2000164604F52B71584605F0E0F8042508E025
:103E300004EB850707F5A277F969386809F0CAF934
:103E400038606D1EF4D2042504EB8507D7F8A8125C
:103E5000D7F8600109F0BEF96D1CC7F84401072DC1
:103E6000F2D332460421104604F0E5FF5FF002056C
:103E700004EB8507D7F85411B86909F043FDC7F87A
:103E80007C016D1EF4D20321149804F0BBFFC4F82A
:103E900088015146304605F014F91DB0BDE8F08F99
:103EA000ACC5A737FEE7704738B500214FF000607A
:103EB00000F0A2F84FF4407000F094F808208DF85C
:103EC000000002208DF8010000248DF80240012539
:103ED0008DF80350684600F047F828208DF8000060
:103EE0008DF801508DF802408DF80350684600F0BF
:103EF0003BF809208DF8000006208DF801008DF8B0
:103F000002408DF80350684600F02EF819208DF815
:103F100000008DF801408DF802408DF8035068468E
:103F200000F022F81A208DF800008DF801408DF87D
:103F300002408DF80350684600F016F81C208DF8FA
:103F400000008DF801408DF802408DF8035068465E
:103F500000F00AF838BD00000249014808607047C7
:103F60000400FA050CED00E0F0B50F22C3780178EB
:103F700001244FF0E0263BB3184B1B6803F4E063C9
:103F8000C3F5E0631D0AC5F10403EA4045789D408E
:103F9000837813402B431A018B07DF0E21F00303B4
:103FA0000F49BA405D182968FF23BB4099431A4066
:103FB00011432960007800F01F018C40400906EB96
:103FC0008000C0F80041F0BD01F01F0084404809A6
:103FD00006EB8000C0F88041F0BD00000CED00E071
:103FE00000E400E00249084302490860704700000D
:103FF0000000FA050CED00E0024A114001430248BE
:104000000160704780FFFF1F08ED00E030B5114CE4
:10401000FF23246804F4E064C4F5E064240AE34068
:10402000C4F10405A9401A400A43110100F0C0027E
:104030009309C0F30120C0008140FF22824005485F
:104040000C3000EB830003689343036002680A436B
:10405000026030BD0CED00E07047704770B572B67D
:104060000720534D534C07E005EB800104EB800221
:10407000D1F84411C2F8C013401EF5D25FF02300FE
:1040800005EB800104EB8002D1F88C11C2F8DC133F
:10409000401EF5D25FF0080005EB800104EB8002C2
:1040A000D1F8C412C2F89013401EF5D25FF002009E
:1040B00005EB800104EB8002D1F87C11C2F8B41347
:1040C000401EF5D23C48C179D9B10021C1713848B0
:1040D000D0F87418D4F8000361F38200C4F8000328
:1040E0003348D0F87018D4F8000361F3C300C4F863
:1040F0000003D5E9550109F012FB1AD2D5F8540195
:1041000019E0022005EB800104EB8002D1F81019C0
:10411000C2F8B410401EF5D25FF0020005EB80013A
:1041200004EB8002D1F8041CC2F8C010401EF5D286
:10413000CDE7D5F85801D5F85C1109F0F0FA0AD2AC
:10414000D5E9550109F0EBFA02D2D5F8540104E0A3
:10415000D5F8580101E0D5F85C01C4F81003144803
:10416000D0F8AC09C4F814031148D0F8A00CC4F876
:104170001803032008E000BF05EB800104EB800278
:10418000D1F8E01FC2F88413401EF5D2084804F5A8
:104190004174D0F8EC0F20600548D0F8F00F606053
:1041A0000348D0F8F40FA06002F058FE62B670BD6C
:1041B000601D0020C80C00204601002070B572B6BA
:1041C0008D4841798D4A82F8B8174279002102B1B1
:1041D0004171C278894B83F8B927C27802B1C170A6
:1041E000874C207C854981F8BA07607C81F8BD073F
:1041F000A07C81F8BB07E07C81F8BC07207881F8BF
:10420000BE07D4F82801C1F8C407D4F82C01C1F8BE
:10421000C807D4F83001C1F8CC07D4F8EC00C1F8D5
:10422000D007A4F588744FF003000D4608E000BFE6
:1042300004EB8001D1F8441205EB8002C2F8D417D8
:10424000401EF5D26E492422A4316E48FCF740F896
:1042500094F8200160B90220E26905EB8001C1F801
:10426000102804EB8002126AC1F81C28401EF3D209
:1042700004F5DC74606F6149C1F84C08A06FC1F8A7
:104280005008E06FC1F85408606BC1F85808A06B83
:10429000C1F85C08206CC1F8600859494FF024024D
:1042A00001F114015848FCF713F8554956482422E7
:1042B00038312430FCF70CF814F8980CA4F5DC74B1
:1042C00048B9022004EB8001C96A05EB8002401E58
:1042D000C2F82C1AF6D2032008E000BF04EB8001DC
:1042E000D1F8B41005EB8002C2F81019401EF5D2C7
:1042F000606C4249C1F8740AA06CC1F8780AD4F81D
:10430000E401C1F8800AD4F81C02C1F8840AD4F888
:104310002002C1F8880AD4F80002C1F88C0AD4F847
:10432000D801C1F8AC0BD4F80C02C1F8A40ED4F833
:104330001002C1F8A80ED4F81402C1F8AC0ED4F8DB
:104340001802C1F8B00ED4F8C002C1F8D00ED4F8EB
:10435000C402C1F8D40ED4F8B402C1F8D80ED4F80F
:10436000B802C1F8DC0ED4F8BC02C1F8E00E244952
:1043700024225C312548FBF7ABFF21492348242246
:1043800080312430FBF7A4FF94F8200148B90220C3
:1043900004EB8001896B05EB8002401EC2F8201DF2
:1043A000F6D2032008E000BF04EB8001D1F8C01072
:1043B00005EB8002C2F8041C401EF5D2E06C0F49E8
:1043C000C1F8680D206DC1F86C0DD4F8E801C1F892
:1043D000740DD4F82402C1F8780DD4F82802C1F87D
:1043E0007C0DD4F80402C1F8800DD4F8DC01C1F8CA
:1043F000A00E62B670BD000046010020601D0020C6
:104400006C0900204C25002044270020382A002079
:10441000034A516821F44041014351607047000054
:1044200000100240044A0029516901D0014300E014
:10443000814351617047000000100240044A002986
:10444000D16901D0014300E08143D1617047000090
:1044500000100240044A0029916901D0014300E0A4
:104460008143916170470000001002400248416A98
:1044700041F08071416270470010024010B500F0B9
:1044800041F84FF4803000F0D5F800F01DF91C49D8
:104490000128087028D11020FEF7E0FD0220FEF769
:1044A00027FE002000F0BCF8002000F0E9F84FF4EF
:1044B000A06000F0DBF84FF40040FFF7A9FF4FF4D5
:1044C000E0114FF4403000F0EBF8012000F0E2F88A
:1044D000392000F085F80028FAD0022000F0EAF830
:1044E00000F096F80828FBD1012140F60D00FFF7F7
:1044F000B1FF0121BDE810400846FFF79FBF000053
:10450000F00000200B48016841F0010101604168A2
:10451000094A114041600168084A11400160016880
:1045200021F480210160416821F4FE0141600021F5
:1045300081607047001002400000FFF8FFFFF6FEA8
:10454000224A10B55168224B11F00C0103D0042906
:1045500003D0082903D0036015E01E4912E051681A
:10456000022301F4701103EB9141536813F4803F6F
:1045700004D053689B0303D5154B02E0164B00E0B3
:10458000144B594301605168144B01F0F0010909C3
:104590005C5C0168E1404160546804F4E064240A12
:1045A0001C5D21FA04F48460546804F46054E40A45
:1045B0001B5DD940C1605268084B02F44042920B27
:1045C0001B1F9A5CB1FBF2F1016110BD00100240AB
:1045D00000127A000024F40000093D00BCDF00084E
:1045E0000246002053090949012B0BD0022B0BD0A6
:1045F000D1F8241002F01F02012393400B4200D097
:10460000012070470968F5E7096AF3E700100240E6
:104610000248406800F00C007047000000100240A3
:10462000034A516821F0F0010143516070470000D6
:10463000001002400B490A6822F480320A600A68BE
:1046400022F480220A60B0F5803F07D0B0F5802FB9
:1046500003D1086840F4A02008607047086840F45F
:104660008030F9E70010024070470000034A5168AB
:1046700021F4E061014351607047000000100240E6
:1046800003494A6822F4605242EAC0004860704719
:1046900000100240014908667047000000004242D5
:1046A000034A5368084323F47C131843506070474F
:1046B00000100240034A516821F003010143516098
:1046C000704700000010024030B500244FF4A06590
:1046D0003120FFF785FF641C08B9AC42F8D13120C6
:1046E000FFF77EFF002800D0012030BD0D494FF4B8
:1046F000D270002202E000BF41F82020401EFBD211
:104700000A490948C1F82C0302204FF07E5200BF2D
:1047100001EB0013C3F89023401EF9D2C1F8CC235B
:1047200070470000900F0020CDCCCC3DC80C00207D
:1047300038B1204A122802EB800204D852F8040C47
:1047400004E0C8207047A2F5677210680A22B1FB26
:10475000F2F1C01CB1FBF0F0C82801D9C82026E056
:10476000642801D9642022E0322801D932201EE0D9
:10477000282801D928201AE0192801D9192016E083
:10478000142801D9142012E00A2801D90A200EE0C9
:10479000052801D905200AE0042801D9042006E0F3
:1047A000022801D9022002E0012800D90120C0B26C
:1047B000704700000400002002004FF4165014D08F
:1047C000194B122A03EB820302D853F8042C02E09F
:1047D000A3F567731A68D21C4A4302EB82014900B1
:1047E0004FF4E122914201D9500070474FF46133F8
:1047F000994201D9104670474FF4FA32914201D9DB
:10480000184670474FF4E1339942F3D85A10914259
:10481000F6D84FF416439942ECD85A109142EFD88B
:104820008142E7D8704700000400002010B5FEF771
:1048300021FE06F0B1FCBDE81040FFF78DBB000083
:1048400010B50446012815D0022C13D0042C11D029
:10485000052C0FD00A2C0DD0142C0BD0192C09D0FC
:10486000282C07D0322C05D0642C03D0C82C01D0C2
:10487000072010BD124B5969187EFFF759FFA0425F
:1048800001D20C2010BD0F4844765C76204608F01B
:104890002BFE01460C4808F011FD07F053F908F013
:1048A000EBFDC1B2094881810021C1818189614349
:1048B0004181408908F018FE02F0F8F8002010BD90
:1048C0005C080020C80C002000004843460100207E
:1048D00010B50346122803D9A3F1F90006280ED813
:1048E000084C61691846FFF723FF617E884201D2B8
:1048F0000C2010BD044803762376002010BD07204D
:1049000010BD00005C080020C80C002070B50446F3
:10491000A2F580600D46D23801D0092070BD601E1E
:10492000E62801D3072070BDFEF7EEFB04482946B8
:1049300000EB8400FEF7BAFBFEF788FB002070BD99
:1049400034F8000810B5144A036800210BB9C2F806
:10495000C81243680BB9C2F8CC12037A0BB982F8BB
:10496000D012437A0BB982F8D112837A0BB982F84C
:10497000D212C37A0BB982F8D312002300EB43049E
:10498000A4891CB902EB4304A4F8D4125B1C102BBD
:10499000F4D3002010BD0000C80C002010B5A1F514
:1049A00080620446D23A01D0092010BDFEF7ACFB6C
:1049B00021460348FEF77AFBFEF748FB002010BDB6
:1049C00030F800082DE9F0418046A2F580600E46DF
:1049D000D23802D00920BDE8F081134901200870C7
:1049E000FEF792FB114D2846FEF7FAFA002418272D
:1049F00007E000BF18F8041005EB4400FEF73AFB8F
:104A0000641C3846182E00D23046A042F2D805E089
:104A100005EB44000021FEF72DFB641C182CF7D396
:104A2000FEF714FB0020D6E74401002000F8000840
:104A300070B50446B0F5165F19D0B4F5964F16D090
:104A4000B4F5164F13D0B4F5614F10D0B4F5E13F73
:104A50000DD0B4F5FA3F0AD0B4F5613F07D0B4F5F4
:104A6000E12F04D0B4F5612F01D0072070BD084DAF
:104A7000697E287EFFF7A0FEA04201D90C2070BD00
:104A8000204601F019FE034844616C61002070BDAE
:104A90005C080020C80C002038B504464188012578
:104AA0006278284602B1002002F0E6FA1C208DF858
:104AB000000021780020D1B105218DF8011000BF40
:104AC0008DF802008DF803506846FFF74DFA607AC2
:104AD00001280FD05FF00002D4E9031002F00EFBB2
:104AE000142221460448FBF7F3FB002038BD8DF863
:104AF0000100E5E70122EFE7C40D00200549036846
:104B000000220BB9C1F8F422806808B9C1F8FC2270
:104B100000207047C80C002070477047704710B5E0
:104B20000446FBF7B6FB02460020014606E0635C44
:104B30002A2B05D0242B00D05840491C9142F6DB8B
:104B400010BD000070B51948FDF762FB184BC0F5A9
:104B500080750024186A174A014613E0165C242E5B
:104B600003D00A2E04D054B10AE00146012407E024
:104B70002CB11962491CC9B200240F4D0CE001464A
:104B8000401CC0B2A842E9D10020196270BD565C39
:104B9000491C2E55C9B2641C8142F8D10021401C29
:104BA0002955C0B21862012070BD000058000240B3
:104BB00060000020D0010020D00200202DE9FF4F2E
:104BC00093B0A1F13100DDF880B00C4615469A464D
:104BD000BE2872D3F8491398FBF7ACFBDFF8D883F3
:104BE0004FF00109A8F1250840B108F12C011398F4
:104BF000FBF7A0FB10B188F8059002E0002088F8D0
:104C00000500EF4FED4807F570710191ED4E04FB83
:104C100005F100911F2C70D012DC4ED2DFE804F0B9
:104C200033385D4E626E71747979797979797979F1
:104C3000FE79797979FDFCFBFAF9F879F779F600D4
:104C4000302C7ED00DDCA4F12004102CE5D2DFE85E
:104C500004F0F4F3F2F1F0EFEEEDEC34EBEAE9E816
:104C6000E7E6A4F1EF0218214FF00309112AD4D28C
:104C7000DFE802F04F4F4FEEED2323ECEBEAE9E8DB
:104C8000E74FE6E5E400CE4B0022CFA0139921E0E8
:104C900000242946139801F027FD2C2007F080FA04
:104CA000CD4D02E007F07CFA641C35F8140008B121
:104CB000182CF7D300F0AEFC86E3D8E3BF490068B8
:104CC000091F03220968CDE90010BC481399083870
:104CD0000368C2A000F034FD76E3BF483030022202
:104CE000036813E000218C22CDF80090CDE901216A
:104CF00001230422BFA01399ECE79CE17B69052204
:104D000004E03B7E062201E07B7E0722BEA01399D1
:104D1000E0E70099139801F0E7FC082C09D01B2C60
:104D200007D01D2C05D0F12C03D0EF2C01D0F02C96
:104D30000AD1A448032363380090B64A002113988F
:104D400000E0F7E101F0A2FB092C0BD00A2C09D0FE
:104D50000B2C07D00C2C05D00D2C03D00E2C01D021
:104D60000F2C0ED1974804234B3800900021019A54
:104D7000139801F08BFB0A2C0DD00D2C0BD00F2CAF
:104D800009D0112C07D0142C05D01B2C03D01D2CBE
:104D900001D0FC2C09D18B489E4A5F380090032338
:104DA000283A0021139801F071FB864D5B3DF12CF0
:104DB00012D00B2C1AD00D2C18D00E2C16D00F2C74
:104DC00014D0122C12D0142C10D01B2C0ED01D2C51
:104DD0000CD0FC2C0AD011E07A4803235F380090F5
:104DE0008D4A0021139801F051FB44E0894A0323C6
:104DF0001C3A00210095139801F048FBF12C3AD0A1
:104E0000EF2C3CD0F02C40D00C2C22E00AE1C8E082
:104E1000BFE0B4E0AAE09FE093E088E07CE0BAE184
:104E2000AFE1A2E197E17BE170E15CE151E148E1B2
:104E30003DE133E126E11AE10FE105E100E3D5E2CE
:104E4000C6E283E24CE2C5E1B9E1AEE154E14AE0F9
:104E500079E124D00E2C22D00F2C20D0132C1ED080
:104E6000142C1CD01B2C1AD0F12C18D0EF2C16D0DF
:104E7000F02C14D01DE00323684A00950BE00323B7
:104E8000674841F21001009504E06548032341F2B0
:104E90000401009542180021139801F0F7FA4948DF
:104EA0005C4A57380090032330320021139801F0F8
:104EB000EDFA1D2C02D0FC2C7FF4FCAE4148554A83
:104EC000573800900323103A0021139801F0DEFABE
:104ED0001D2C01D0FC2CEFD13A484E4A67380123F3
:104EE000121F00907DE24E48D0F8B018D0F8AC0800
:104EF00008F070F94A49D1F8B41808F06BF907F0D6
:104F000069FA01900099139801F0EEFB2D4801AA6F
:104F10001A380123009064E22901139801F0E4FBA0
:104F200028483C4A1A3809230C32009059E2C5EB54
:104F3000C500234A00EB40000623C1B2B4320096FC
:104F400006E0162045431E4A0A23E9B21C320096A9
:104F5000139801F09BFA37E2C5EBC500184A00EB45
:104F600005100C23C1B254320096F1E705EB450061
:104F7000C006134A010E042344320096E8E705EB0D
:104F8000C5000F4A00EB05100C23C1B28432009615
:104F9000DEE71A2045430A4A0923E9B2CC320096DB
:104FA000D6E70848064A65380090C5EBC50080067C
:104FB000010E0123F032CBE785000020F0F7FF1F40
:104FC0005C080020A7DB000825732C253032752CE7
:104FD000252E32307300000000F8000825732C25C0
:104FE0003032752C2530385825303858253038580F
:104FF0000000000025732C253032752C25752E25D8
:10500000752E25752E25750025732C253032752CAF
:1050100025750000E00B0020282600201C29002018
:10502000601D0020FC480090C5EB05104006010EF5
:105030000723FA4A8CE7F848F94A54300090C5EB48
:105040004510C1B2162383E7F348F44A6B30009051
:105050006807010E092308327AE7EF48F04A213841
:10506000009005EB45100323C1B22C3270E7EA48EB
:10507000EA4A0830009005EB05104006010E0723B0
:105080001C3265E7E448E54A14380090C5EBC500DA
:1050900000EB80000423C1B22C3259E705EBC500B8
:1050A0008006DE4A010E09233032009650E705EBF8
:1050B0008500DA4A00EB45100923C1B2543200964C
:1050C00046E726204543D54A0923E9B278320096BF
:1050D0003EE7C5EBC500D14A00EB45100923C1B23C
:1050E0009C32009634E705EB8500C006CB4A010EE2
:1050F0000923C03200962BE7C748C94A8330009085
:10510000F62045430823E9B2BC3A21E7C248C44A25
:10511000103000902A2045430723E9B2383217E7C0
:10512000BD48BF4A253800902B2045430323E9B2F0
:10513000843A0DE705EB45000007B94A010E02234A
:10514000143A009604E7F2204543B54A0323E9B236
:105150000C3A0096FCE6B048B14A1D3800902C206D
:1051600045430323E9B2783AF2E6AB48AC4A0F383C
:105170000090C5EB051000EB40000623C1B2743A65
:10518000E6E6A548A64A8C3000902E2045430E2323
:10519000E9B2603ADCE6C5EB0510A14A00EB451028
:1051A0000C23C1B2443A0096D2E605EBC5009C4AF6
:1051B000C0EB05200C23C1B2AC3A0096C8E6964875
:1051C000964A75300090C5EB4510C006010E0D23C0
:1051D000E432BDE6D8F814104546B1FBF9F209FBFC
:1051E000121472B607F561773868019078680290FA
:1051F000B8680390204608F077F98A4A049002EBD9
:105200008400D0F8901B0591D0F8841E0691D0F848
:10521000EC1F0791D0F8BC180891D0F8D818099164
:10522000D0F8B01B0A91D0F8CC1B0B91416D0C91BA
:1052300002EB041151F86C3F0D934B6A0E938B6C8B
:105240000F93C96E1091D0F854011190C4EBC400B3
:1052500002EB8000D0F8E00107F0BCF8129062B6D3
:105260000099139801F040FA6B4C0323313C01AADA
:1052700000210094139801F009F9032304AA0021E6
:105280000096139801F002F9012307AA0021009467
:10529000139801F0FBF8241D032308AA00210094B1
:1052A000139801F0F3F802230BAA0021009413983D
:1052B00001F0ECF804F1C800009004230DAA0021CD
:1052C000139801F0E3F8022311AA00210096139825
:1052D00001F0DCF800F09EF96869401C686173E039
:1052E00098F80120444612B1036853456CD1012A55
:1052F0000AD15002ADF804008DF806908DF8071021
:1053000001A94948FDF7F2FF0099139801F0ECF963
:105310004148012333380090444A0021139801F09A
:10532000B5F83D4814233F300090414A00211398BE
:1053300001F0ACF800F06EF96078012802D043E08B
:10534000FEF77EF820780028FAD02CE098F80120AB
:10535000444612B10368534536D1012A0AD150029E
:10536000ADF804008DF806908DF8071001A92E48BD
:10537000FDF7BCFF0099139801F0B6F92648284ABA
:10538000253000900A236C320021139801F07EF83A
:1053900000F040F96078012802D015E0FEF750F8DF
:1053A00020780028FAD041F2883001F0B3FB4FF4A6
:1053B0000070ADF804008DF8069000208DF807000D
:1053C00001A91948FDF792FF002017B0BDE8F08F42
:1053D0000099139801F088F90F48019A08380723BB
:1053E00000900021139801F051F863E4C5EBC5105B
:1053F0004100139801F078F95FF00004C4EBC40099
:1054000007EB800101F5777101220AA000F086F90F
:10541000641C062CF2DB4DE475DB0008500900200B
:10542000240B0020601D0020000801405C010020CA
:10543000B01800202C252B31332E364500000000FB
:10544000AAF58061D23901D00920BEE7BBF1000F77
:1054500002D0BBF1F00F01D90720B6E705495B4642
:10546000FF2251F82B00009003A0139932E408208A
:10547000ABE7000034F8000825732C25752C257542
:105480002C2545002DE9F8432D494FF4806842460C
:1054900001F58D6006F067FA01210846FEF7C2FFAC
:1054A000012144F20400FEF7D5FF26480E21042511
:1054B00001704570002484700126C670FEF754FD0B
:1054C00020482521001D0327017047708470C67095
:1054D000FEF74AFDE801ADF800008DF802701820D3
:1054E000194E8DF8030069463046FDF7FFFEADF812
:1054F00000808DF8035069463046FDF7F7FE00F056
:105500002BF812484FF4E13101608480C48004819B
:1055100084810C2141810E4C0146204601F08AFF16
:105520000122C021204601F07CFF0122022109480E
:10553000FCF782FE0121204601F069FFBDE8F883F7
:10554000DC0300207800002000080140DC07002078
:1055500000380140440002402DE9F041DFF884802A
:105560004046FCF7E9FD21481F4D0024102105604D
:10557000C0E90141012100F10C02802652C2846180
:105580000F03C461C0E90847014684624046FCF746
:105590005BFE012202214046FCF74EFEDFF844800C
:1055A00008F114084046FCF7C7FD10482C30A0F560
:1055B000C9610560C0E9011400F10C02A91552C2CD
:1055C00020218461C0E90741C0E9097401464046D1
:1055D000FCF73AFE0648012104624046BDE8F0416E
:1055E000FCF7A0BD4400024004380140EC07002055
:1055F0006000002010B501210448FCF793FDBDE8D0
:1056000010400121024801F002BF00005800024092
:105610000038014070B5204D204C687910B394F8E3
:10562000F50020B1B4F800131DA006F0E9FE94F8CF
:10563000F400A8B194F8F400012806D0022807D09D
:10564000032808D064280BD102E0D4F8F41204E057
:10565000D4F8F81201E0D4F8FC1213A006F0D0FE42
:105660000020687194F8F800012809D094F8F80037
:10567000022809D0BDE870402A210DA006F0C0BE66
:10568000AA782A210CA002E02A892A210DA0BDE8CF
:10569000704006F0B5BE0000600000205C080020ED
:1056A0002C532530345800002C542530367500001A
:1056B00025630D0A000000002563253032580D0ACD
:1056C000000000002563253034580D0A000000005A
:1056D00070B50D4606460124FAF7DBFD00210A46A7
:1056E000296007E0B15C2C2903D1511C45F8241036
:1056F000641C521C8242F5D300222A21304601F05C
:1057000040F800222C21304601F03BF8204670BDC5
:105710000146014800F014B824DC00082DE9F041EE
:1057200007460E461546002406E000BF56F8241032
:10573000384606F065FE641CAC42F7D3BDE8F08144
:105740000FB4074910B503AC2420FAF7A0FD214699
:10575000029806F05FFEFFF75DFF10BC5DF814FBDA
:10576000800100202DE9F04FF84C0026C1B02078D0
:10577000012803D126706068FFF75AF9207A0128C2
:1057800003D12672607AFFF7A3F8A07A012803D12B
:10579000A672E07AFFF754F8DFF8B0B3ABF1800BF4
:1057A000DBF80C10002920DD491ECBF80C101CD1B1
:1057B0004FF40070ADF8980003208DF89A0018207F
:1057C0008DF89B0026A9E248FDF790FDE149E148EC
:1057D0000322001F09680068CDE90001DD48DEA151
:1057E00008380368DEA0FFF7ABFFE34DD74C05F5A3
:1057F00057705C3C289004F108002B90C01D2E903F
:10580000C01D2F90C01D3090C01D31900E302990CA
:10581000C01D2C901C302D900E383290D7482A9005
:10582000FFF790F901280BD0D54CD64F257897F883
:10583000FA0001287DD097F8FA000228FAD0F8E3A0
:105840000027D148FAF725FDC1B2481E23D0DFF862
:10585000388300BF18F800202A2A02D0401EF9D150
:1058600019E010F0FF0916D009F10300884212D8A0
:105870009BF80700012810D04946C348FCF77BFB82
:10588000824608EB0900401C00F067FF824515D0F6
:105890009BF8070090B10327CFE2BB48FFF73FF921
:1058A000C144824699F8020000F036FF034699F899
:1058B000010000F031FF03EB0010E7E702A9B24856
:1058C000FFF706FF0299279001EB0800611CFAF729
:1058D00031FD78B30299C14601EB08002B99FAF724
:1058E00029FD002874D0029901EB09002E99FAF7DE
:1058F00021FD00286DD0029901EB09002F99FAF7DC
:1059000019FD00287CD0029901EB09003099FAF7C3
:1059100011FD002875D00299C84601EB09003199A4
:10592000FAF708FD00286DD0029901EB08002999CB
:1059300001E0F7E325E0FAF7FDFC00287AD00299B0
:1059400001EB08002C99FAF7F5FC002873D00299B6
:1059500001EB08002D99FAF7EDFC00286CD00298B5
:10596000474638443299FAF7E5FC002865D002989A
:10597000764938440E39FAF7DDFC00285ED004275A
:10598000FCE3279801285AD0022804D003280BD022
:10599000042855D11EE0039901EB0800FAF759FCE1
:1059A0000146002300960DE0049901EB0800FAF788
:1059B00050FC0399074601EB0800FAF74AFC014640
:1059C0003B4600960122601CFFF7F8F80746D4E337
:1059D00019E074E30499C14601EB0800FAF739FCB9
:1059E0000599C7B201EB0900FAF733FC0399804629
:1059F00001EB0900FAF72DFC014643460097E1E769
:105A000064E370E37AE3604803994FF00008C2460C
:105A10000844FAF71EFC00F0FF09A9F13100BE2886
:105A20007AD34846B9F1220F77D01DDCB9F1220FA5
:105A300072D206E077E38FE3AEE3DCE3FDE384E0DC
:105A4000A4E0DFE809F02D506BF3F3A4B4C5696955
:105A50006969696969696969696969D6F4F1F0EF29
:105A6000EE69ED69ECEBEAE930286DD00BDCA9F1C9
:105A700023000B28DCD2DFE800F0F0EFEEEDECEBDA
:105A80004F4FEAE9E800A9F1F2000E28D0D2DFE892
:105A900000F0ED434343ECEBEA43E943E8E7E6E596
:105AA0002798032851D371D8374F04983844FAF710
:105AB000F0FB142803D94FF01408002006E00498E6
:105AC0003844FAF7E6FB8046002004E004993A18CF
:105AD000895C2954401C4045F8D301E02E54401CF9
