:0400000081EF2AF072
:080008006BEF00F000000000A6
:100010000000000000000000046ED8CF05F0E0CF23
:1000200006F00001E9CF0CF0EACF07F0E1CF08F0CD
:10003000E2CF09F0D9CF0AF0DACF0BF0F3CF12F00C
:10004000F4CF13F0FACF14F0F5CF15F0F6CF16F089
:10005000F7CF17F000C00EF001C00FF002C010F093
:1000600003C011F09DA238EF00F09EB2E6EF03F05E
:10007000F2A63EEF00F0F2B0D6EF0CF09DAA44EFEE
:1000800000F09EBA85EF04F00EC000F00FC001F042
:1000900010C002F011C003F00CC0E9FF07C0EAFF76
:1000A000078E08C0E1FF09C0E2FF0AC0D9FF0BC0FC
:1000B000DAFF12C0F3FF13C0F4FF14C0FAFF15C03B
:1000C000F5FF16C0F6FF17C0F7FF045006C0E0FFAB
:1000D00005C0D8FF10001A6ED8CF1BF0E0CF1CF07F
:1000E0000001E9CF22F0EACF1DF0E1CF1EF0E2CF10
:1000F0001FF0D9CF20F0DACF21F0F3CF28F0F4CFE2
:1001000029F0FACF2AF0F5CF2BF0F6CF2CF0F7CF6D
:100110002DF000C024F001C025F002C026F003C07D
:1001200027F0A3AE97EF00F0A4BE06EF02F024C0C4
:1001300000F025C001F026C002F027C003F022C065
:10014000E9FF1DC0EAFF1D8E1EC0E1FF1FC0E2FFD8
:1001500020C0D9FF21C0DAFF28C0F3FF29C0F4FF77
:100160002AC0FAFF2BC0F5FF2CC0F6FF2DC0F7FF09
:100170001A501CC0E0FF1BC0D8FF1000F76A8C0F9C
:10018000F66E010EF7220900F55012000161F76AC0
:100190009E0FF66E010EF7220900F5501200800046
:1001A000F76AB00FF66E010EF7220900F550120043
:1001B000D007F76AC20FF66E010EF7220900F5505C
:1001C000120048D5F76AD40FF66E010EF722090027
:1001D000F55012002100F76AE60FF66E010EF722C5
:1001E0000900F5501200F501F76AF80FF66E010EDE
:1001F000F7220900F55012000503F76A0A0FF66EA0
:10020000020EF7220900F55012000003F76A1C0FD6
:10021000F66E020EF7220900F55012000C456B73C2
:100220006F2042696F6E69637300F76A3A0FF66E6A
:10023000020EF7220900F55012000742617474653E
:100240007279F76A520FF66E020EF7220900F55026
:100250001200064C692D696F6E00F76A6A0FF66E20
:10026000020EF7220900F5501200F8F5F2EDE7E072
:10027000D8CEC3B7AA9C8E807265594E443B332CAE
:1002800026211D191613100E0C0B0908F76A9C0F76
:10029000F66E020EF7220900F55012000000000071
:1002A0000000000101010101010101010101010141
:1002B000020202020202020202020202020203031C
:1002C00003030303030303040404040404040404F5
:1002D00005050505050506060606060606070707C1
:1002E0000707080808090909090A0A0A0B0B0B0C79
:1002F0000C0C0C0D0D0D0E0E0E0F0F0F0F1010101D
:1003000011111112131415161718191A1B1C1C1D84
:100310001E1F20212224252628292A2B2D2E2F306E
:10032000323334363738393B3C3D3E404142444518
:100330004647494A4B4C4F515456585B5D60626585
:1003400067696C6E717375797C7F8285898C8F92F9
:1003500096999C9FA2A6A9ACAEB0B2B4B6B8BABCEE
:10036000BEC0C2C4C6C8CBCDCFD0D1D2D3D4D6D7CD
:10037000D8D9DADBDDDEDFE0E1E2E4E5E6E8E9EA70
:10038000ECEDEEEFF1F2F3F5F6F7F9F9F9FAFAFB25
:10039000FBFBFCFCFCFDFDFEFEFEFFFFF76AAC0F65
:1003A000F66E030EF7220900F550120030312D468B
:1003B00065622D31330043464752302025780A0DBF
:1003C000000043464752312025780A0D000043467D
:1003D0004752322025780A0D000043464752332009
:1003E00025780A0D000043464752342025780A0D2F
:1003F000000043464752352025780A0D00006FCF94
:100400004AF2D5C26FFF6C88A49E12006DBA04D068
:1004100002014E6B6DB44E8F02014E514E2BD36FC5
:10042000D3517F080AE36C9CA4AEFED76F506C8852
:100430004D6F49694C6B4B6B8FD1D3517F08D8B04E
:100440008BD1492B4D51030A000144E00B0A4DE0CA
:10045000010A5AE0030AD8B466D0010AD8B472D0AF
:10046000070AD8B47ED0010AD8B48AD0020AD8B418
:1004700096D01F0AD8B4A2D0060AD8B4AED0010ACA
:10048000D8B4B6D00F0AD8B4C2D0010AD8B4CAD0F2
:10049000030AD8B4D2D0010AD8B4DAD0070AD8B443
:1004A000E6D03C0AD8B4EED0010AD8B4F6D0030A9C
:1004B000D8B4FED0620AD8B406D1010AD8B40ED19D
:1004C000030AD8B416D1010AD8B422D1070AD8B485
:1004D0002ED13CD1036A0201495100014FDE0201D5
:1004E000D46FD56F00018BDF36D1036A0201495109
:1004F0000F0FE96E020E0320EA6EEFCFD4F2D4C2E2
:10050000D5F200017CDF27D1036A02014951110FA6
:10051000E96E020E0320EA6EEFCFD4F2D4C2D5F218
:1005200000016DDF18D1036A02014951130FE96E12
:10053000020E0320EA6EEFCFD4F2D4C2D5F200014E
:100540005EDF09D1036A02014951150FE96E020EFF
:100550000320EA6EEFCFD4F2D4C2D5F200014FDF10
:10056000FAD0036A02014951170FE96E020E032007
:10057000EA6EEFCFD4F2D4C2D5F2000140DFEBD067
:10058000036A02014951190FE96E020E0320EA6E57
:10059000EFCFD4F2D4C2D5F2000131DFDCD0036A50
:1005A000020149511B0FE96E020E0320EA6EEFCFE4
:1005B000D4F2D4C2D5F2000122DFCDD0036A020109
:1005C00049511D0FE96E020E0320EA6EEFCFD4F2FF
:1005D000D4C2D5F2000113DFBED0036A0201495133
:1005E0000001D5DD0201D46FD56F000108DFB3D063
:1005F000036A020149511F0FE96E020E0320EA6EE1
:10060000EFCFD4F2D4C2D5F20001F9DEA4D0036A50
:10061000020149510001C4DD0201D46FD56F000110
:10062000EEDE99D0036A020149510001C2DD0201E8
:10063000D46FD56F0001E3DE8ED0036A0201495109
:100640000001C0DD0201D46FD56F0001D8DE83D078
:10065000036A02014951210FE96E020E0320EA6E7E
:10066000EFCFD4F2D4C2D5F20001C9DE74D0036A50
:10067000020149510001AFDD0201D46FD56F0001C5
:10068000BEDE69D0036A020149510001BFDD0201EB
:10069000D46FD56F0001B3DE5ED0036A0201495109
:1006A0000001C3DD0201D46FD56F0001A8DE53D075
:1006B000036A020149510001C4DD0201D46FD56F04
:1006C00000019DDE48D0036A0201495100018CDD22
:1006D0000201D46FD56F000192DE3DD0036A0201A2
:1006E000495100018ADD0201D46FD56F000187DE18
:1006F00032D0036A02014951250FE96E020E032030
:10070000EA6EEFCFD4F2D4C2D5F2000178DE23D066
:10071000036A02014951400FE96E020E0320EA6E9E
:10072000EFCFD4F2D4C2D5F2000169DE14D0036A4F
:1007300002014951230FE96E020E0320EA6EEFCF4A
:10074000D4F2D4C2D5F200015ADE05D00201D56B35
:10075000000155DE00D00201A49E000197EF00F0D9
:10076000000E016EC250C30B0110C26EC282C2B233
:10077000FED7C350C282C2B2FED7C4CFAFF20201CD
:10078000C3CFAEF2040E016EC250C30B0110C26E95
:10079000C282C2B2FED7C350C282C2B2FED7C3CF9A
:1007A000B0F2C4CFB1F2B051AE5D006EB151AF59ED
:1007B000036E00C001F0026E0001120094908B9055
:1007C00038961200AC9A949C8B9C1200C9DF02C030
:1007D0006BF001C06AF0312AD8B4322A010E3326F8
:1007E000D8B0342AD8B4352AD8B4362A38B8A39E1B
:1007F00002014B2BD8B44C2B6CB80DD04C5303E1F9
:100800004B51360808E2D56B0001F9DDA351FD0814
:10081000D8B0A32B020138B8A38E00016BBF05D05E
:100820006B530CE16A51010809E36BAF52D06B5175
:10083000FF084FE303E16A51FE084BE36AC000F092
:100840006BC001F0026A036A6BAF02D002060306B6
:100850000050495E01504A5A02504B5A03504C5ABC
:100860004CAE04D04C6A4B6A4A6A496A6BBF17D0D7
:100870006B5303E16A51000812E26AC000F06BC0DA
:1008800001F0026A036A6BAF02D002060306005051
:100890004D5E01504E5A02504F5A0350505A50BEAE
:1008A00001D017D0070E506ED80E4F6EED0E4E6E63
:1008B000280E4D6E472AD8B4482A4850060809E247
:1008C000FF0A03E14750D00804E2070E486ED00E3D
:1008D000476E6BBF0CD06B51000809E2FF0A03E1C1
:1008E0006A516A0804E202014F2B03D000010201A1
:1008F0004F6B4F510F0805E2000160DF63DF388264
:1009000002019E92000144EF00F09EAAFED7AECFF6
:1009100064F0388A9E9A44EF00F050726576696FF1
:10092000757320332073687574646F776E73202835
:100930006D6F737420726563656E7420666972737F
:1009400074293A0A0D0025643A2025642C206F751D
:1009500074206F662072616E67650A0D0000563A5A
:100960002025662C20433A2025660A0D0000636589
:100970006C6C2025643D000063656C6C2025643D33
:100980000000546F74616C205061636B5620256CBD
:10099000750A0D004368617267652074696D653A78
:1009A00020256C64206D696E20256C6420730D0A0F
:1009B00000005368756E74206D61736B2028636549
:1009C0006C6C20313220746F2030293A200063682B
:1009D000617267696E673A2000006175746F0A0D75
:1009E00000007368756E747320666F7263656420AF
:1009F0006F66660A0D007368756E747320666F7299
:100A0000636564206F6E0A0D00004E4F54206368CA
:100A1000617267696E670A0D00000A0D4C6173749C
:100A20002072656164696E6720256C640A0D534FFE
:100A30004320636E7420256C640A0D52656D6169F4
:100A40006E696E672025660A0D00496E7374206317
:100A5000757220256C640A0D4176672063757220DB
:100A6000256C640A0D006379636C6520636E7420E5
:100A70003D20256C7520206379636C6520534F43BE
:100A800020256C640A0D00006C6F7720766F6C7403
:100A9000203D20005609096869676820766F6C74EC
:100AA000203D20006C6F7720766F6C742063796333
:100AB0006C65203D20256C75090900006869676830
:100AC00020766F6C74206379636C65203D20256C03
:100AD000750A0D006C6F7720766F6C742063656CFF
:100AE0006C203D20256C75090900686967682076CF
:100AF0006F6C742063656C6C203D20256C750A0D4D
:100B000000004932432074696D656F7574733A2033
:100B100025750A0D00004C54432074696D656F758E
:100B200074733A2025750A0D0000566F6C74616766
:100B3000652073656E7365206572726F72733A20FB
:100B400025750A0D000053696E676C652063686542
:100B5000636B73756D206572726F72733A202575C1
:100B60000A0D0000446F75626C6520636865636BF5
:100B700073756D206572726F72733A2025750A0D58
:100B80000000566F6C7461676520646574656374FA
:100B90003D25640A0D004857207665723A20256489
:100BA0002E25640A0D4657207665723A2025642E5C
:100BB00025640A0D4275696C6420446174653A20AD
:100BC00025730A0D000030312D4665622D3133004A
:100BD0005475726E206F6E20616C6C207368756E38
:100BE00074733F0A0D205072657373207920696E0B
:100BF000203320736563732E2E2E0A0D000054756A
:100C0000726E206F666620616C6C207368756E74FE
:100C1000733F0A0D205072657373207920696E202E
:100C20003320736563732E2E2E0A0D005475726E79
:100C300020616C6C207368756E747320746F206112
:100C400075746F3F0A0D20507265737320792069A7
:100C50006E203320736563732E2E2E0A0D00466FAF
:100C60007263652062616C616E63696E67206F6E8E
:100C70003F0A0D205072657373207920696E20330E
:100C800020736563732E2E2E0A0D0000466F72636B
:100C9000652062616C616E63696E67206F66663F96
:100CA0000A0D205072657373207920696E203320FD
:100CB000736563732E2E2E0A0D00456E61626C659E
:100CC00020686967682063757272656E743F0A0DEB
:100CD000205072657373207920696E20332073650C
:100CE00063732E2E2E0A0D0044697361626C6520B9
:100CF000686967682063757272656E743F0A0D20BB
:100D00005072657373207920696E20332073656398
:100D1000732E2E2E0A0D0000436C65617220616CEB
:100D20006C20646174613F0A0D20507265737320FA
:100D30007920696E203320736563732E2E2E0A0D81
:100D400000005265736574206379636C6520636F7E
:100D5000756E743F0A0D2050726573732079206997
:100D60006E203320736563732E2E2E0A0D0053659B
:100D700074206379636C6520636F756E7420746F83
:100D800020256C753F0A0D20507265737320792001
:100D9000696E203320736563732E2E2E0A0D0000BA
:100DA00053687574646F776E3F0A0D2050726573D7
:100DB00073207920696E203320736563732E2E2E85
:100DC0000A0D00005072657373207920696E20331C
:100DD00020736563732E2E2E0A0D0000416C6C206B
:100DE0007368756E7473206F6E0A0D00416C6C2011
:100DF0007368756E7473206F66660A0D0000416C2F
:100E00006C207368756E747320746F206175746FD5
:100E10000A0D0000466F7263652062616C616E634B
:100E2000696E67206F6E0A0D0000466F7263652061
:100E300062616C616E63696E67206F66660A0D00A1
:100E4000486967682063757272656E7420656E61AB
:100E5000626C65640A0D00004869676820637572FA
:100E600072656E742064697361626C65640A0D005A
:100E7000454570726F6D2072657365740A0D0000D0
:100E80004379636C6520636E742072657365740AC0
:100E90000D004379636C6520636F756E7465722015
:100EA0007365740A0D005368757474696E67206405
:100EB0006F776E0A0D0048656C703A0A0D093F3A6B
:100EC00020476F7420796F7520686572650A0D4739
:100ED0003A20646973706C617920616C6C20646184
:100EE00074612028656E7465722076616C7565206A
:100EF0006669727374290A0D563A2063656C6C201A
:100F0000766F6C74730A0D00433A20637572207219
:100F1000656164696E670A0D543A2074656D7020CE
:100F200072656164696E670A0D533A207368756E65
:100F30007420626974206D61736B0A0D423A2074EB
:100F400075726E206F6E20616C6C207368756E74A4
:100F5000730A0D004E3A207475726E206F6666201B
:100F6000616C6C207368756E74730A0D573A207447
:100F700075726E207368756E747320746F2061755E
:100F8000746F0A0D553A206C617374207368757420
:100F9000646F776E730A0D503A205072696E742038
:100FA00056657273696F6E730A0D0000453A2065CD
:100FB0006E61626C65732068696768206375720A88
:100FC0000D443A2064697361626C657320686967D7
:100FD00068206375720A0D463A20726573657473F2
:100FE00020656570726F6D0A0D483A2068697374E8
:100FF0006F72696320696E666F0A0D00523A205362
:101000004F432028766F6C7461676520616E6420A1
:1010100063757272656E74290A0D233A20736572C6
:1010200069616C206E756D6265720A0D25253A2026
:101030007265736574206379636C6520636F756E88
:10104000740A0D213A2073687574646F776E0A0D07
:101050000000413A20666F7263652042616C616EE8
:1010600063696E67206F6E0A0D5A3A20666F72636D
:10107000652042616C616E63696E67206F66660A07
:101080000D513A2073686F77207374617465206F17
:101090006620766F6C74616765206465746563743F
:1010A0002070696E0A0D00004F3A20646973706CFD
:1010B0006179206572726F72730A0D4B3A20736505
:1010C00074206379636C6520636F756E7420286586
:1010D0006E7465722076616C7565206669727374D2
:1010E000290A0D493A206368617267652074696D49
:1010F000650A0D302D393A20656E7465722076616F
:101100006C75650A0D000201B16BB05303E1AF517C
:10111000B15D0CE2B26BB251630806E30B0E006ED8
:10112000002EFED7B22BF7D7B12BEFD7000112005C
:101130000201CD6BCC69CF6BCE69CB5331E0CB5183
:10114000140802E2140E01D0CB51D06FD051CB5F06
:10115000CAC203F0C951C92BD8B4CA2BE96E03C067
:10116000EAFFEF50CC27000ECD23CC51CE27CD5136
:10117000CF23D02FEDD7CCC2D1F2D26BCD51036AA1
:10118000CC25CC6F0350D221CD6FCEC2D1F2D26B21
:10119000CF51036ACE25CE6F0350D221CF6FCDD76A
:1011A000CCC2D1F2D26BCD51036ACC25CC6F0350A7
:1011B000D221CD6FCEC2D1F2D26BCF51036ACE25F0
:1011C000CE6F0350D221CF6FD16BD151CC11006EB5
:1011D000CE51CD11036E00C001F0026E000112006D
:1011E0000201CA6B470EE96ECAC2EAFFEFCFB1F245
:1011F000CA6B470EC96F010EC925016E000ECA21C8
:1012000001C0E9FFEA6EEFCFB2F2CA6B560EE96E8B
:10121000CAC2EAFFEFCFB3F2CA6B560EC96F010E16
:10122000C925016E000ECA2101C0E9FFEA6EEFCFA9
:10123000B4F2CA6B5A0EE96ECAC2EAFFEFCFB5F23A
:10124000CA6B5A0EC96F010EC925016E000ECA2164
:1012500001C0E9FFEA6EEFCFB6F2CA6B5E0EE96E2F
:10126000CAC2EAFFEFCFB7F2CA6B5E0EC96F010EBA
:10127000C925016E000ECA2101C0E9FFEA6EEFCF59
:10128000B8F2CA6B620EE96ECAC2EAFFEFCFB9F2DA
:10129000CA6B620EC96F010EC925016E000ECA210C
:1012A00001C0E9FFEA6EEFCFBAF2CA6B4D0EE96EEC
:1012B000CAC2EAFFEFCFBBF2CA6B4D0EC96F010E77
:1012C000C925016E000ECA2101C0E9FFEA6EEFCF09
:1012D000BCF2CA6B4D0EC96F020EC925016E000E1D
:1012E000CA2101C0E9FFEA6EEFCFBDF2CA6B4D0E15
:1012F000C96F030EC925016E000ECA2101C0E9FFA6
:10130000EA6EEFCFBEF2CA6B490EE96ECAC2EAFFBF
:10131000EFCFBFF2CA6B490EC96F010EC925016E2E
:10132000000ECA2101C0E9FFEA6EEFCFC0F2CA6B1E
:10133000490EC96F020EC925016E000ECA2101C0F7
:10134000E9FFEA6EEFCFC1F2CA6B490EC96F030E17
:10135000C925016E000ECA2101C0E9FFEA6EEFCF78
:10136000C2F2036AA50EE96E03C0EAFFEFCFC3F233
:10137000036AA70EE96E03C0EAFFEFCFC4F2036A67
:10138000A30EE96E03C0EAFFEFCFC5F2036A510E68
:10139000E96E03C0EAFFEFCFC6F2036A520EE96EB0
:1013A00003C0EAFFEFCFC7F2036A530EE96E03C032
:1013B000EAFFEFCFC8F2020ECA6FB10EC96F180E66
:1013C000CB6F0001B5DE0250120037502C08D8A4B4
:1013D000ABD247C0B1F2AA6AA96AB1C2A8FFA69C63
:1013E000A69EA684F250006EF29CF29E0F01550E4E
:1013F000A76EAA0EA76EA6820050F212A6B2FED762
:10140000A69448C0B1F2AA6A010EA96E48C0A8FF0E
:10141000A69CA69EA684F2CF00F0F29CF29E550EEA
:10142000A76EAA0EA76EA6820050F212A6B2FED731
:10143000A6944DC0B1F2AA6A0A0EA96E4DC0A8FFCB
:10144000A69CA69EA684F2CF00F0F29CF29E550EBA
:10145000A76EAA0EA76EA6820050F212A6B2FED701
:10146000A6944EC0B1F2AA6A0B0EA96E4EC0A8FF98
:10147000A69CA69EA684F2CF00F0F29CF29E550E8A
:10148000A76EAA0EA76EA6820050F212A6B2FED7D1
:10149000A6944FC0B1F2AA6A0C0EA96E4FC0A8FF65
:1014A000A69CA69EA684F2CF00F0F29CF29E550E5A
:1014B000A76EAA0EA76EA6820050F212A6B2FED7A1
:1014C000A69450C0B1F2AA6A0D0EA96E50C0A8FF32
:1014D000A69CA69EA684F2CF00F0F29CF29E550E2A
:1014E000A76EAA0EA76EA6820050F212A6B2FED771
:1014F000A69449C0B1F2AA6A0E0EA96E49C0A8FF0F
:10150000A69CA69EA684F2CF00F0F29CF29E550EF9
:10151000A76EAA0EA76EA6820050F212A6B2FED740
:10152000A6944AC0B1F2AA6A0F0EA96E4AC0A8FFDB
:10153000A69CA69EA684F2CF00F0F29CF29E550EC9
:10154000A76EAA0EA76EA6820050F212A6B2FED710
:10155000A6944BC0B1F2AA6A100EA96E4BC0A8FFA8
:10156000A69CA69EA684F2CF00F0F29CF29E550E99
:10157000A76EAA0EA76EA6820050F212A6B2FED7E0
:10158000A6944CC0B1F2AA6A110EA96E4CC0A8FF75
:10159000A69CA69EA684F2CF00F0F29CF29E550E69
:1015A000A76EAA0EA76EA6820050F212A6B2FED7B0
:1015B000A694AA6A150EA96E51C0A8FFA69CA69E65
:1015C000A684F2CF00F0F29CF29E550EA76EAA0EF2
:1015D000A76EA6820050F212A6B2FED7A694AA6AFF
:1015E000160EA96E52C0A8FFA69CA69EA684F2CF96
:1015F00000F0F29CF29E550EA76EAA0EA76EA68270
:101600000050F212A6B2FED7A694AA6A170EA96ECF
:1016100053C0A8FFA69CA69EA684F2CF00F0F29C21
:10162000F29E550EA76EAA0EA76EA6820050F21269
:10163000A6B2FED7A6945650545C03E15750555CB1
:1016400034E056C0B1F2AA6A020EA96E56C0A8FFD5
:10165000A69CA69EA684F2CF00F0F29CF29E550EA8
:10166000A76EAA0EA76EA6820050F212A6B2FED7EF
:10167000A69457C0B1F2AA6A030EA96E57C0A8FF7C
:10168000A69CA69EA684F2CF00F0F29CF29E550E78
:10169000A76EAA0EA76EA6820050F212A6B2FED7BF
:1016A000A69457C055F056C054F05A50585C03E108
:1016B0005B50595C34E05AC0B1F2AA6A040EA96EBC
:1016C0005AC0A8FFA69CA69EA684F2CF00F0F29C6A
:1016D000F29E550EA76EAA0EA76EA6820050F212B9
:1016E000A6B2FED7A6945BC0B1F2AA6A050EA96E97
:1016F0005BC0A8FFA69CA69EA684F2CF00F0F29C39
:10170000F29E550EA76EAA0EA76EA6820050F21288
:10171000A6B2FED7A6945BC059F05AC058F05E50EE
:101720005C5C03E15F505D5C34E05EC0B1F2AA6ACC
:10173000060EA96E5EC0A8FFA69CA69EA684F2CF48
:1017400000F0F29CF29E550EA76EAA0EA76EA6821E
:101750000050F212A6B2FED7A6945FC0B1F2AA6AF8
:10176000070EA96E5FC0A8FFA69CA69EA684F2CF16
:1017700000F0F29CF29E550EA76EAA0EA76EA682EE
:101780000050F212A6B2FED7A6945FC05DF05EC014
:101790005CF000016251605D03E16351615D36E020
:1017A00062C0B1F2AA6A080EA96EB1C2A8FFA69CD7
:1017B000A69EA684F250006EF29CF29E0F01550E7A
:1017C000A76EAA0EA76EA6820050F212A6B2FED78E
:1017D000A69463C0B1F2AA6A090EA96E63C0A8FFFD
:1017E000A69CA69EA684F2CF00F0F29CF29E550E17
:1017F000A76EAA0EA76EA6820050F212A6B2FED75E
:10180000A69463C061F062C060F00001A551A45DC0
:101810001AE0AA6A120EA96EA5C0A8FFA69CA69EF1
:10182000A684F250006EF29CF29E0F01550EA76E38
:10183000AA0EA76EA6820050F212A6B2FED7A694F8
:10184000A5C0A4F00001A751A65D1AE0AA6A130E74
:10185000A96EA7C0A8FFA69CA69EA684F250006E03
:10186000F29CF29E0F01550EA76EAA0EA76EA682DD
:101870000050F212A6B2FED7A694A7C0A6F00001AF
:10188000A351A25D1AE0AA6A140EA96EA3C0A8FF14
:10189000A69CA69EA684F250006EF29CF29E0F01BA
:1018A000550EA76EAA0EA76EA6820050F212A6B21F
:1018B000FED7A694A3C0A2F0000192DC02C0B0F251
:1018C00001C0AFF2AFC2B1F2AA6A280EA96EB1C2CE
:1018D000A8FFA69CA69EA684F250006EF29CF29EE3
:1018E0000F01550EA76EAA0EA76EA6820050F21227
:1018F000A6B2FED7A694B0C2B1F2AA6A290EA96E0A
:10190000B0C2A8FFA69CA69EA684F2CF00F0F29CCF
:10191000F29E550EA76EAA0EA76EA6820050F21276
:10192000A6B2FED7A69400011200E2EC03F0020179
:10193000AE51050807E0B06B140EAF6F000183ECE9
:1019400008F0020194908B903896F29CF29EF2BEC1
:10195000FDD752C053F051C052F0AEC251F0000159
:1019600034DDC150F00BC16E000E0F01386F3C6FBB
:10197000396F3A6F3B6F7C6AF18ECD6ACC6ABA6E72
:10198000000EBB6E516F000E526F426B926A896AF5
:10199000936A8A6A96968D6A946A8B6A6C9A938225
:1019A00094928B920400FED700011200938881B8B4
:1019B00005D0050E0201AE6F0001B7DFF29044EFD3
:1019C00000F00201826B470EE96E82C2EAFFEFCFA0
:1019D0007FF2826B470E816F010E8125016E000E32
:1019E000822101C0E9FFEA6EEFCF80F2196AF2BCF2
:1019F000198CF29CF2BE198EF29E020ECA6F7F0EF7
:101A0000C96F020ECB6F000198EC08F019BCF28C84
:101A100019BEF28E02501200020EEA6E890EE96EB5
:101A2000EF5011E0050E016EBF0E006E0400002E97
:101A3000FDD7012EF9D72E0E006E002EFED7000026
:101A40000400EF2EEFD71200040E0201835F0AE3B9
:101A5000020EEA6E830EE96EEF5004E001D004003E
:101A6000EF2EFDD700011200929C899C0400020E0B
:101A70000201826FF80E836F0001E6DF0201822F00
:101A8000F9D7928C0400020E826FF80E836F00016A
:101A9000DBDF0201822FF9D7928C0001C5EF0DF038
:101AA0000201836B835107081CE3929C899C04000C
:101AB000020E006E002EFED7D890823302E2899C7F
:101AC00001D0898C929C04004F0E006E002EFED730
:101AD0000000928C0400020E006E002EFED7832BB5
:101AE000E1D70001CFEF0DF00201846B84510708AC
:101AF0001CE3929C899C0400020E006E002EFED70F
:101B0000928C04000A0E006E002EFED7928C80BCD0
:101B100002D0D89001D0D880853304009F0E006E8B
:101B2000002EFED70000842BE1D785C201F0000112
:101B3000120083C285F20201896B895107081BE3F9
:101B400084C200F08951016E04E0D8900032012E69
:101B5000FCD70050010B866F8551010B876F8651B2
:101B60008719010B886FD8908533885302E08C0E5B
:101B7000851B892BE2D785C201F00001FCEF0DF037
:101B80000201816B7F6B00016FD70A0E0201896F22
:101B9000000142DF330E0201826F000181D7010E86
:101BA0000201896F000138DF010E0201806F805150
:101BB000070827E3036A8051400F016E020E0322DB
:101BC00001C082F203C083F200018EDF83C2EAFF0C
:101BD00082C2E9FF01C0EFFF036A02018051400F9A
:101BE000E96E020E0320EA6EEFCF82F27FC283F22B
:101BF00082C284F200019DD701C07FF20201802BD6
:101C0000D6D7036A8051400F016E020E032201C035
:101C100082F203C083F2000167DF83C2EAFF82C25F
:101C2000E9FF01C0EFFF0201812B010E896F000166
:101C3000F3DE02017F51485D02E1415303E181512E
:101C40000408A0E20001BBEF30F00201965302E16C
:101C5000975342E092C2E9FF93C2EAFFEFCF98F2B6
:101C600095C203F094C2E9FF95C2EAFFEF50985D78
:101C700017E093C203F092C2E9FF93C2EAFFEFCFED
:101C800098F295C203F094C2E9FF95C2EAFFEF50C3
:101C9000985D02E2FF0E01D0010E016E1FD00BD045
:101CA00093C203F092C2E9FF93C2EAFFEF5203E14D
:101CB000000E016E13D093C203F09251922BD8B450
:101CC000932B95C203F09451942BD8B4952B965135
:101CD000D8B497079607BAD7000E016E0001C6EF79
:101CE0000EF0020EEA6E800EE96E000ECEEC01F0F0
:101CF0000A000900F550EE6E0009FBE180C289F28E
:101D000081C28AF287C28BF288C28CF202018351AF
:101D1000600806E283517A0803E38351DF0B01D0A8
:101D20008351836F8451600806E284517A0803E38B
:101D30008451DF0B01D08451846F8551600806E225
:101D400085517A0803E38551DF0B01D08551856FFA
:101D50007F6B7F510B0822E3D8907F35036AAA0F6F
:101D6000E96E000E0320EA6EECCF91F2ED52EFCF58
:101D700090F291C293F290C292F2020E956F830E8E
:101D8000946F976B030E966F00015FD7015203E1CA
:101D9000020104D0000102017F2BDBD7010E7F2559
:101DA0008D6F8B510F0B0A0DF3CF90F28C510F0BEF
:101DB00090258E6F89510F0B0A0DF3CF90F28A5147
:101DC0000F0B90258F6F8D39006E0036E00E0016D8
:101DD00000508F25216F140E8E25006ED890003490
:101DE000906F8D31006E003200321F0E00160050D1
:101DF0009025226F0001BDEF30F00201946B9451E9
:101E000007081AE393BF02D08B9A01D08B8A949A69
:101E1000D890933704000C0E006E002EFED700D031
:101E200094968B8604000C0E006E002EFED700D018
:101E300094968B96942BE3D70001120091C293F2F3
:101E4000DCDF04000C0E006E002EFED700D092C224
:101E500093F2D3DF120094948B94040000D000001E
:101E6000010E0201936F0001C8DF04001A0E006E1C
:101E7000002EFED7040E0201916F926B0001DEDF8F
:101E800004001A0E006E002EFED7F00E0201916FB4
:101E900092690001D3DF04001A0E006E002EFED7F7
:101EA000850E0201916FA60E926F0001C7DF04003C
:101EB0001A0E006E002EFED794948B84BFEF30F084
:101EC0000201806BF00E816F94948B94040000D01B
:101ED0000000010E936F000190DF04001A0E006EE7
:101EE000002EFED7040E0201916F80C292F2000113
:101EF000A5DF04001A0E006E002EFED781C291F2FB
:101F00000201926900019ADF04001A0E006E002E91
:101F1000FED7850E0201916FA60E926F00018EDF33
:101F200004001A0E006E002EFED794948B840201DA
:101F30000E6B0D6B000112000201896B886B94948B
:101F40008B94100E936F000158DF9D9236C083F280
:101F500035C082F234C081F233C080F29D82948811
:101F600082A832D002018851880829E189511308DA
:101F700026E19D9236C087F235C086F234C085F2E4
:101F800033C084F29D828051845D8A6F815185596E
:101F90008B6F825186598C6F835187598D6F8D530A
:101FA00007E18C5305E18B5303E18A51640805E294
:101FB00094948B84010E016E0CD0896B886B882BF6
:101FC000D8B4892B0001CBD794948B84000E016E7A
:101FD0000201000189EF10F094968B8604000C0E2C
:101FE000006E002EFED700D094880201926B82B85A
:101FF000922B94968B9604000C0E006E002EFED74A
:1020000000D0916B9151060819E3D89092379496BD
:102010008B8604000C0E006E002EFED700D0948834
:10202000000E82B8010E922794968B9604000C0E37
:10203000006E002EFED700D0912BE4D792C201F0A3
:102040000001120094948B9482C291F2040E02015A
:10205000926F0001F3DE04001A0E006E002EFED710
:102060000201866B86510B084FE30001B5DF01C00A
:1020700083F204001A0E006E002EFED7ADDF01C001
:1020800084F204001A0E006E002EFED7D8900201D2
:102090008635036A8025E96E81510320EA6E8451FA
:1020A0000F0BEC6EED5283C2EFFF000195DF01C014
:1020B00083F204001A0E006E002EFED7020183394F
:1020C000856F0F0E85178439876F0F0E8717835121
:1020D0000F0B006E003AF00E001600508725836F3C
:1020E000010E8625006ED89000360050036A8025C8
:1020F000E96E81510320EA6E85C2ECFFED5283C286
:10210000EFFF020E8627AED794948B840001120055
:1021100013D701C07FF202017F2D17D00001A75114
:10212000FD08D8B0A72B196AF2BC198CF29CF2BE3C
:10213000198EF29E020E0201AE6F000195EC0CF0BA
:1021400019BCF28C19BEF28E0201816B6E0E806F8B
:10215000810E826F000176DF0201816B860E806F37
:10216000820E826F00016EDF140E0201896F000182
:1021700053DC1200020188518A03F3CF01F0F4CF3F
:1021800000F08B03F350002689518A03F35000209E
:10219000026E00011200016A026A006A036A02010B
:1021A0008B5102E18A5118E0100E8C6FD89088375D
:1021B0008937003603368B51035C02E18A51005C9B
:1021C00007E38A51005ED8A003068B51035ED880D6
:1021D000013602368C2FEAD7000112000201826B11
:1021E000816B010E856F806B8051060843E3D890A8
:1021F0008035036A6E0FE96E000E0320EA6EECCFA5
:1022000087F2ED52EFCF86F287C289F286C288F25A
:102210008B6B0F0E8A6F0001ADDF02C087F201C029
:1022200086F202C089F201C088F202018B6B0A0EAD
:102230008A6F0001B0DF02C084F201C083F20201A4
:102240008351812784518223036A8551250FE96ECA
:10225000020E0320EA6E83C2EFFF852B036A8551CD
:10226000250FE96E020E0320EA6E84C2EFFF852B74
:10227000802BBAD7806B8051050843E3D890803516
:10228000036A860FE96E000E0320EA6EECCF87F238
:10229000ED52EFCF86F287C289F286C288F28B6B4D
:1022A0000F0E8A6F000166DF02C087F201C086F25E
:1022B00002C089F201C088F202018B6B0A0E8A6F9C
:1022C000000169DF02C084F201C083F20201835180
:1022D000812784518223036A8551250FE96E020EFE
:1022E0000320EA6E83C2EFFF852B036A8551250F19
:1022F000E96E020E0320EA6E84C2EFFF852B802B6D
:10230000BAD781C201F082C202F0000112000201BC
:10231000906B916B010E926FDA6AD96A020E956F1B
:10232000880E946F020EEA6E8C0EE96E95C2E2FF83
:1023300094C2E1FF92C293F2D890E550EE02F350BE
:102340009023F4509123932FF7D790C2DEFF91C2D0
:1023500090F2916BD8B0912B942BD8B4952B922BF3
:1023600092510508DFE10001120002018351920839
:102370000AE2FF0A03E18251440805E2440E825F4B
:10238000930E835B02D0836B826B83C289F282C21D
:1023900088F28B6B420E8A6F0001FDDE02C083F271
:1023A00001C082F202018351000802E2836B82695C
:1023B000036A8251000146EC01F0016E016A026A73
:1023C000036A03C087F202C086F201C085F2E8CF3B
:1023D00084F287C28BF286C28AF285C289F284C2F5
:1023E00088F202018F6B070E8E6FE00E8D6FCD0E9F
:1023F0008C6F00018CDF03C087F202C086F201C03F
:1024000085F200C084F2020187BF13D0875307E131
:10241000865305E1855303E1845100080AE284C232
:1024200000F085C201F086C202F087C203F006D038
:1024300005D0006A016A026A036A00D00001120036
:10244000576856685B6A5A6A5F6A5E6A636B626B5A
:1024500087C24CF086C24BF085C24AF084C249F074
:10246000A36BA56BA76B88C2A8F089C2A9F0AA6A62
:102470002E0EA96EA8C0A8FFA69CA69EA684F25008
:10248000006EF29CF29E0F01550EA76EAA0EA76E6B
:10249000A6820050F212A6B2FED7A694AA6A2F0E08
:1024A000A96EA9C0A8FFA69CA69EA684F2CF00F0A4
:1024B000F29CF29E550EA76EAA0EA76EA682005041
:1024C000F212A6B2FED7A694516A526A536A196AEA
:1024D000F2BC198CF29CF2BE198EF29E0001E5EC62
:1024E00009F019BCF28C19BEF28E120094908B8008
:1024F000388612000201926B916B94948B94300E8B
:10250000936F00017ADC9D9236C08CF235C08BF25D
:1025100034C08AF233C089F29D82948882A832D076
:1025200002019151880829E19251130826E19D92F8
:1025300036C090F235C08FF234C08EF233C08DF2C7
:102540009D8289518D5D936F8A518E59946F8B5105
:102550008F59956F8C519059966F965307E195530B
:1025600005E1945303E19351640805E294948B844C
:10257000010E016E0CD0926B916B912BD8B4922B03
:102580000001CBD794948B84000E016E02010001F0
:1025900062EF13F094948B9489C291F2080E0201B9
:1025A000926F00014BDC04001A0E006E002EFED765
:1025B00013DD01C08EF204001A0E006E002EFED74D
:1025C0000BDD01C08FF204001A0E006E002EFED744
:1025D00002018AC2E9FF8BC2EAFF8F510F0BEC6E3A
:1025E000ED528EC2EFFF0001F7DC01C08EF2020156
:1025F0008E39906F0F0E90178F39916F0F0E9117C4
:102600008E510F0B006E003AF00E0016005091250F
:102610008E6F8CC2E9FF8DC2EAFF90C2ECFFED52D3
:102620008EC2EFFF04001A0E006E002EFED79494A7
:102630008B848AC2E9FF8BC2EAFFD890EF34026E26
:10264000EC34036E0250ED52EF6E03C0ECFF8CC20F
:10265000E9FF8DC2EAFFD890EF34026EEC34036ECE
:102660000250ED52EF6E03C0ECFF000112000201B8
:102670008C518E19800B906F8CAF05D08B1F8C1FE7
:102680008B2BD8B48C2B8EAF05D08D1F8E1F8D2B2E
:10269000D8B48E2B8B518D03F3CF01F0F4CF00F023
:1026A0008E03F35000268C518D03F3500020026EF0
:1026B00090AF05D0011E021E012AD8B4022A0001E3
:1026C000120018D7140E0201896F00010CEC0DF0F6
:1026D000810E0201896F020E8B6F810E8A6F020ECE
:1026E0008D6F830E8C6F000155DF820E0201896FA2
:1026F000020E8B6F850E8A6F020E8D6F870E8C6FA8
:10270000000148DF02018231036E8131026E033223
:10271000023203320232033202320F0E031602C0BB
:1027200080F28431036E8331026E0332023203324F
:102730000232033202320F0E031602C001F00352BE
:1027400011E18051015C0EE28431036E8331026E2F
:102750000332023203320232033202320F0E031608
:1027600002C080F28631036E8531026E033202327E
:1027700003320232033202320F0E031602C001F09E
:10278000035211E18051015C0EE28631036E853106
:10279000026E0332023203320232033202320F0E71
:1027A000031602C080F28831036E8731026E033255
:1027B000023203320232033202320F0E031602C01B
:1027C00001F0035211E18051015C0EE28831036E89
:1027D0008731026E03320232033202320332023296
:1027E0000F0E031602C080F27F6B7F51210827E392
:1027F000036A7F5100012DEC01F0016E020180514E
:10280000015C1BE2036A7FC289F203C08AF28C6B0F
:10281000050E8B6F03C08EF27FC28DF2000127DFA1
:1028200002C08AF201C089F2D80E02010124016EB1
:10283000FF0E0220036E026E06D07F2BD6D7FF0E4E
:10284000016E000E026E00011200070E0201806F81
:10285000D00E7F6F7FC21DF280C21EF247C01FF2F2
:1028600048C020F200015CEF32F07FC262FF72EFDD
:1028700032F051C2EAFF50C2E9FF02018FC2EFFFFE
:10288000E92AD8B4EA2AEF6A502BD8B4512B0001B8
:102890009EEF14F0EACF8EF2E9CF8DF20201873974
:1028A000F009896F8927E20F8A6F320F8C6F875189
:1028B0000F0B8A278A278C27E90F8B6F8B278B2793
:1028C00086390F0B8B278C278B378C378C1F8C37D7
:1028D00086510F0B8C278937070E886F0A0E8B07DE
:1028E0008C27FDE38A078B27FDE389078A27FDE311
:1028F00088078927FDE3020EEA6E880EE96E070E4F
:102900008D158D9DE9268C0EE95CD8B48D8DEF5028
:10291000006E08E18DBD06D08DB915D08DB702D0FF
:10292000200E03D08D878D99300E0026EACF87F2D6
:10293000E9CF86F200C08FF200019BD787C2EAFF81
:1029400086C2E9FF0201EE508DADDDD70001E0EF58
:1029500014F083C289F282C288F202018B6B0F0EDF
:102960008A6F000107DC02C085F201C084F202C058
:1029700089F201C088F202018B6B0A0E8A6F000196
:102980000ADC02C085F201C084F202C089F201C0F3
:1029900088F202018B6B0A0E8A6F0001BAEC10F00C
:1029A00002C085F201C084F20201516B3D0E506FEE
:1029B000080EE96E02C087F201C086F200016AD7F4
:1029C00042C043F041C042F040C041F03FC040F03F
:1029D0003EC03FF02E0E3E6E3D0E016E000E026EAA
:1029E0001200EF5210E0EACF85F2E9CF84F2EF5007
:1029F0009EA8FED7AD6E85C2EAFF84C2E9FFE92A30
:102A0000D8B4EA2AEED71200EACF8AF2E9CF89F2E7
:102A100002018339F009856F8527E20F866F320F37
:102A2000886F83510F0B862786278827E90F876FCA
:102A30008727872782390F0B87278827873788378B
:102A4000881F883782510F0B88278537070E846FC0
:102A50000A0E87078827FDE386078727FDE385079A
:102A60008627FDE384078527FDE3020EEA6E840EC8
:102A7000E96E070E8915899DE926880EE95CD8B4B0
:102A8000898DEF50006E08E189BD06D089B90CD060
:102A900089B702D0200E03D089878999300E00268D
:102AA00000509EA8FED7AD6EEE5089ADE6D700016E
:102AB000120002010DC201F00EC202F0000112006C
:102AC000020183BF10D00F0E006E823900160A0E6D
:102AD000005C03E2300E002602D083510026005035
:102AE0009EA8FED7AD6E0F0E82170A0E825D02E21F
:102AF000300E02D0839F8351822782519EA8FED739
:102B0000AD6E00011200B60E006E036A026A016A21
:102B10000201879186AF0CD08781831F841F851F98
:102B2000861F832B05E1842B03E1852BD8B4862BEC
:102B3000835184118511861102E1006A0FD0D8906B
:102B400001BE09D08337843785378637033602368E
:102B50000136002EF4D7019E87B1018E00011200CC
:102B600002018451D8B4A5D0906F8851D8B4A1D0B7
:102B7000905F05E37F0E9027D8B09BD006D0810EE2
:102B8000905FD8A096D0D8B494D090C200F0016ADB
:102B9000026A036A8F6B85C28EF28E8F86C28DF2B7
:102BA00087C28CF2190E906F8B518C5F0DE2010E73
:102BB0008D5F0AE28E5F08E28F5F06E28F2B8E2B1D
:102BC0008D2B8B518C2728D08A518D5F12E2010EFC
:102BD0008E5F0FE28F5F0DE28F2B8E2B8A518D2738
:102BE0008B518C2719E38D2B17E18E2B15E18F2B41
:102BF00013D0895180098E5F0EE2010E8F5F0BE2C8
:102C00008F2B895180098E278A518D27E9E38E2BDE
:102C1000E7E18F2BE5D70380902F01D00BD0D89020
:102C20008C378D378E378F37D89003360236013682
:102C30009137BAD791A106D0D8900132023203322F
:102C4000913302D0000635E091BF1ED0D8908C376A
:102C50008D378E378F378B518C5F07E2010E8D5F7A
:102C600004E28E5F02E28F5F1AE38A518D5F05E214
:102C7000010E8E5F02E28F5F12E3895180098E5F41
:102C800003E2010E8F5F0BE3032A09E1022A07E149
:102C9000012A05E1002A0DE001320232033285C229
:102CA00090F28951901B90AF02D0018E06D0019E08
:102CB00004D0006A016A026A036A0001120002017C
:102CC0009151D8B471D0006E9551D8B46DD0002612
:102CD00004E3810E002668E204D07F0E005E64E308
:102CE00063E092C299F29651991B928F968F9451FC
:102CF0009803F4CF9BF293519703F4CF03F0F3CFF3
:102D00009AF29803F3509B27F4509A23000E032263
:102D100094519703F3509B27F4509A23000E026AB4
:102D20000322022292519803F3509A27F45003226F
:102D3000000E022292519703F3500326F450022210
:102D4000000E016A012294519603F3509A27F45021
:102D50000322000E0222012293519603F350032610
:102D6000F4500222000E012292519603F3500226E3
:102D7000F4500122002A01BE05D09A3703360236EC
:102D800001360006000E9AAF0AD0032A0222012261
:102D9000015005E1025003E1035001E1002A99BF0F
:102DA000018E99AF019E04D0006A016A026A036A2B
:102DB0000001120002019151B608916F036A92C29C
:102DC00095F2928FD8909233933394330332023238
:102DD00001320032912FF6D795AF0BD0001E011EA5
:102DE000021E031E002AD8B4012AD8B4022AD8B47D
:102DF000032A000171EF17F0D8B204D0020EEA6E78
:102E0000990EE96E006A016A026A036A0201996B0F
:102E10009A6B9B6B9C6B98519711961195112CE0B6
:102E2000200E9D6FD890913792379337943799370A
:102E30009A379B379C3798519C5D08E197519B5D71
:102E400005E196519A5D02E19551995D0FE3955127
:102E5000995F9651D8A0963D9A5F9751D8A0973D1B
:102E60009B5F9851D8A0983D9C5FD8800036013672
:102E7000023603369D2FD6D799C2EFFF9AC2ECFFD8
:102E80009BC2ECFF9CC2ECFF00011200E950020162
:102E9000896F88518B6F1BE087C294F286C293F2D0
:102EA00085C292F284C291F2986B976B200E966F56
:102EB000820E956F000103DF03C087F202C086F225
:102EC00001C085F200C084F202018B2FE5D787C2D2
:102ED00094F286C293F285C292F284C291F200010A
:102EE00069D703C087F202C086F201C085F200C034
:102EF00084F2020187AF0DD08907898B841F851F5B
:102F0000861F871F842BD8B4852BD8B4862BD8B4C2
:102F1000872B3B0E906F9A0E8F6FCA0E8E6F8D6B44
:102F20000A0E8B6F8851D8B4892BD882020EEA6EB4
:102F3000840EE96E87C294F286C293F285C292F241
:102F400084C291F290C298F28FC297F28EC296F22A
:102F50008DC295F2000150DF0150005213E10201D1
:102F600088298B5DD8A402D000010CD089510DE0D6
:102F70000F0B8B5D01E03CE289BF3AD089BD05D0E3
:102F8000200E31D0200E0201891789AB0DD0899B0C
:102F90008851D8A489070050896F2D0E9EA8FED7AE
:102FA000AD6E8951006E896B88518B5D0BE10050CD
:102FB000896F2E0E9EA8FED7AD6E8951006E200E31
:102FC0008917000E300E89AB0ED0899B8851D8A48A
:102FD00089070050896F2D0E9EA8FED7AD6E8951CE
:102FE000006E896B300E002600509EA8FED7AD6E95
:102FF000D89290C294F28FC293F28EC292F28DC296
:1030000091F2986B976B966B0A0E956F0001F4DE48
:1030100003C090F202C08FF201C08EF200C08DF2A8
:1030200002018B2F82D700011200E9500201846F48
:1030300083AF0DD08407848B801F811F821F831F65
:10304000802BD8B4812BD8B4822BD8B4832B3B0EE1
:103050008B6F9A0E8A6FCA0E896F886B0A0E866F05
:10306000D882020EEA6E800EE96E83C294F282C2AA
:1030700093F281C292F280C291F28BC298F28AC21C
:1030800097F289C296F288C295F20001B5DE01502E
:10309000005213E102018651010AD8A402D00001B6
:1030A0000CD084510DE00F0B865D01E028E284BF57
:1030B00026D084BD05D0200E1DD0200E020184171D
:1030C00084AB0AD0849B00C084F22D0E9EA8FED74C
:1030D000AD6E84C200F0846B300E84AB0BD0849B49
:1030E00000C084F22D0E9EA8FED7AD6E84C200F003
:1030F000846B300E002600509EA8FED7AD6ED8928D
:103100008BC294F28AC293F289C292F288C291F27F
:10311000986B976B966B0A0E956F00016DDE03C07E
:103120008BF202C08AF201C089F200C088F202016B
:10313000862F96D7000112008E0E006E020182517A
:10314000005E83C202F084C201F0028E005209E0E8
:10315000D890025202E1015204E002320132002E04
:10316000F7D783AF05D0011E021E012AD8B4022A68
:1031700000011200EACF8CF2E9CF8BF2020185AF99
:1031800008D08B8F8BA98B2B841F851F842BD8B4E1
:10319000852B8539F009876F8727E20F886F320FFB
:1031A0008A6F85510F0B882788278A27E90F896F37
:1031B0008927892784390F0B89278A2789378A37F6
:1031C0008A1F8A3784510F0B8A278737070E866F2D
:1031D0000A0E89078A27FDE388078927FDE3870709
:1031E0008827FDE386078727FDE3020EEA6E860E39
:1031F000E96E070E8B158B9DE9068B1507E18BB9E0
:10320000E92A8BB903D0200E006E1CD0E9268A0E65
:10321000E95CD8B48B8DEF50006E08E18BBD06D011
:103220008BB914D08BB702D0200E0BD08BAF06D049
:103230002D0E006EED508B9D8B9F04D08B878B994C
:10324000300E002600509EA8FED7AD6EEE508BAD1E
:10325000DED70001120002017F6B7F51060829E3CF
:10326000D8907F35036A6E0FE96E000E0320EA6E78
:10327000ECCF81F2ED52EFCF80F281C283F280C2B7
:1032800082F20001A9EC14F002C081F201C080F2C8
:1032900002C0EAFF01C0E9FFF1EC14F02C0E9EA879
:1032A000FED7AD6E200E9EA8FED7AD6E02017F2B1D
:1032B000D4D77F6B7F51050829E3D8907F35036A07
:1032C000860FE96E000E0320EA6EECCF81F2ED521C
:1032D000EFCF80F281C283F280C282F20001A9ECBA
:1032E00014F002C081F201C080F202C0EAFF01C006
:1032F000E9FFF1EC14F02C0E9EA8FED7AD6E200E67
:103300009EA8FED7AD6E02017F2BD4D70001EEEC54
:1033100010F002C081F201C080F2100EE96E02C00E
:1033200083F201C082F204EC15F02C0E9EA8FED7A9
:10333000AD6E200E9EA8FED7AD6E59EC15F002C002
:1033400081F201C080F2300E9EA8FED7AD6E780EDD
:103350009EA8FED7AD6E80C282F2570E0201836F27
:10336000000160EC15F02C0E9EA8FED7AD6E200E6D
:103370009EA8FED7AD6EEEEC10F002C081F201C047
:1033800080F202C083F201C082F2B5EC11F003C0FA
:1033900086F202C085F201C084F200C083F283ECA1
:1033A00015F000C080F201C081F202C082F203C0B9
:1033B00083F203C087F202C086F201C085F200C02A
:1033C00084F2D00E02018B6FB60E8A6F200E896FC9
:1033D000930E886F0001B0EC15F003C03CF002C002
:1033E0003BF001C03AF000C039F0890EE96E3CC0F4
:1033F00087F23BC086F23AC085F239C084F2020EF1
:103400000201886F000142DD2C0E9EA8FED7AD6E32
:10341000200E9EA8FED7AD6E4CC086F24BC085F242
:103420004AC084F249C083F283EC15F000C080F2F8
:1034300001C081F202C082F203C083F203C087F2AE
:1034400002C086F201C085F200C084F2D00E0201F3
:103450008B6FB60E8A6F200E896F930E886F0001F6
:10346000B0EC15F003C03CF002C03BF001C03AF0F4
:1034700000C039F0890EE96E3CC087F23BC086F28D
:103480003AC085F239C084F2020E0201886F000151
:10349000FDDC2C0E9EA8FED7AD6E200E9EA8FED79A
:1034A000AD6E410EE96E4CC083F24BC082F24AC051
:1034B00081F249C080F2B9DD2C0E9EA8FED7AD6E18
:1034C000200E9EA8FED7AD6EA1C085F2A0C084F2EA
:1034D0009FC083F29EC082F22FDE011C0201806F2A
:1034E000021C816F802BD8B4812B100EE96E81C233
:1034F00085F280C284F200013DDE0D0E9EA8FED74B
:10350000AD6E0A0E9EA8FED7AD6E7FEF32F00900B9
:10351000F5520DE0F6CF80F2F7CF81F2F5509EA87C
:10352000FED7AD6E80C2F6FF81C2F7FFF0D7120062
:1035300002018B51016A8A5D03E28AC200F00CD05D
:10354000006A080E8C6F8A3700368B51005CD8B049
:10355000006E01368C2FF7D700011200200E0201F9
:1035600085A9300E866F84C200F084AF07D0001E9C
:10357000002A00C084F22D0E866F858F015084C210
:103580008AF2640E8B6F0001D3DF00C084F2300E2C
:1035900001240201876F84C28AF20A0E8B6F000138
:1035A000C7DF300E00240201896F300E0124886FBE
:1035B00086C200F085A702D085AF859585B90BD06E
:1035C00085AF22D085B520D000C087F285B31CD04E
:1035D00000C088F219D0300E875D16E100C087F276
:1035E000200E866F85A704D08595858385AF85934A
:1035F000300E885D09E100C088F2200E876F85A734
:10360000F7D7859385AF859185A504D086519EA86F
:10361000FED7AD6E85A304D087519EA8FED7AD6EB0
:1036200085A104D088519EA8FED7AD6E89519EA871
:10363000FED7AD6E000112000900F6CF85F2F7CF7C
:1036400086F2F5509EA8FED7AD6E85C2F6FF86C203
:10365000F7FF0201842F01D002D00001EDD7000155
:10366000120094948B9480C291F2020E0201926F28
:1036700000011EEC0FF004001A0E006E002EFED7A3
:10368000ECEC0FF001C081F2B60EF66E030EF76E91
:10369000060E0201846F0001CFDF81C282F2570E55
:1036A0000201836F000160EC15F00A0E9EA8FED7A0
:1036B000AD6E0D0E9EA8FED7AD6E04001A0E006E04
:1036C000002EFED7ECEC0FF001C081F2C20EF66EB8
:1036D000030EF76E060E0201846F0001ADDF81C29A
:1036E00082F2570E0201836F000160EC15F00A0EA2
:1036F0009EA8FED7AD6E0D0E9EA8FED7AD6E04003F
:103700001A0E006E002EFED7ECEC0FF001C081F215
:10371000CE0EF66E030EF76E060E0201846F0001E8
:103720008BDF81C282F2570E0201836F000160ECD1
:1037300015F00A0E9EA8FED7AD6E0D0E9EA8FED700
:10374000AD6E04001A0E006E002EFED7ECEC0FF0EA
:1037500001C081F2DA0EF66E030EF76E060E02015C
:10376000846F000169DF81C282F2570E0201836F0C
:10377000000160EC15F00A0E9EA8FED7AD6E0D0E8E
:103780009EA8FED7AD6E04001A0E006E002EFED766
:10379000ECEC0FF001C081F2E60EF66E030EF76E50
:1037A000060E0201846F000147DF81C282F2570ECC
:1037B0000201836F000160EC15F00A0E9EA8FED78F
:1037C000AD6E0D0E9EA8FED7AD6E04001A0E006EF3
:1037D000002EFED7ECEC0FF001C081F2F20EF66E77
:1037E000030EF76E060E0201846F000125DF81C211
:1037F00082F2570E0201836F000160EC15F00A0E91
:103800009EA8FED7AD6E0D0E9EA8FED7AD6E949409
:103810008B841200006A016A02018051D89081B144
:1038200000260032013281B300260032013281B518
:1038300000260032013281B700260032013281B900
:1038400000260032013281BB00260032013281BDE8
:1038500000260032013281BF002600320132000111
:1038600012009EA8FED7AD6E1200015080C28AF2EF
:10387000640E02018B6F00015BDE00C080F201501C
:10388000300E08E1020181A30ED081B70CD081B9BE
:10389000200E04D002018197819981810126015077
:1038A0009EA8FED7AD6E80C28AF20A0E8B6F000111
:1038B0003FDE00C080F20150300E08E1020181B706
:1038C0000BD081A109D081B9200E00010126015041
:1038D0009EA8FED7AD6E0201300E802780519EA8B3
:1038E000FED7AD6E00011200036A010E026E0201E6
:1038F0008551006E05E0D89002360336002EFBD7C6
:1039000002500D1303500E130001120002010DC2EC
:1039100080F2809F816B94948B94040000D000000F
:10392000810E936F0001FDEC0EF004001A0E006E84
:10393000002EFED7010E0201936F0001FDEC0EF088
:1039400004001A0E006E002EFED7040E0201916FC5
:1039500080C292F200011EEC0FF004001A0E006EFD
:10396000002EFED781C291F20201926900011EEC85
:103970000FF004001A0E006E002EFED7850E020115
:10398000916FA60E926F00011EEC0FF004001A0E4C
:10399000006E002EFED794948B8404001A0E006EE5
:1039A000002EFED70201806B0DBF80810E511F0BD0
:1039B000006ED890003600508013816B94948B94E5
:1039C000040000D00000820E936F0001FDEC0EF0A9
:1039D00004001A0E006E002EFED7010E0201936F36
:1039E0000001FDEC0EF004001A0E006E002EFED752
:1039F000040E0201916F80C292F200011EEC0FF0E2
:103A000004001A0E006E002EFED781C291F2020150
:103A1000926900011EEC0FF004001A0E006E002ED9
:103A2000FED7850E0201916FA60E926F00011EEC6B
:103A30000FF004001A0E006E002EFED794948B84B3
:103A400004001A0E006E002EFED712006451300AD8
:103A5000D8B4D5D0010AD8B4D2D0030AD8B4CFD0C4
:103A6000010AD8B4CCD0070AD8B4C9D0010AD8B456
:103A7000C6D0030AD8B4C3D0010AD8B4C0D00F0A44
:103A8000D8B4BDD0010AD8B4BAD06C0AD8B4F0D03A
:103A9000200AD8B4EDD03F0AD8B487D1200AD8B4D0
:103AA00084D1380AD8B493D1200AD8B490D1240A4A
:103AB000D8B435D2200AD8B432D2220AD8B4F0D23F
:103AC000200AD8B4EDD23D0AD8B400D3200AD8B425
:103AD000FDD23A0AD8B448D3200AD8B445D3100A44
:103AE000D8B4A5D3200AD8B4A2D3600AD8B4D2EFF0
:103AF00021F06B0AD8B4F8EF21F0200AD8B4F8EF1F
:103B000021F0270AD8B4EBEF22F0200AD8B4EBEF6B
:103B100022F03E0AD8B46EEF23F0200AD8B46EEF3C
:103B200023F0210AD8B48EEF23F0200AD8B48EEF08
:103B300023F0320AD8B4E2EF23F0200AD8B4E2EF3F
:103B400023F02C0AD8B4EFEF23F0200AD8B4EFEF1B
:103B500023F0390AD8B4FCEF23F0200AD8B4FCEFE4
:103B600023F0360AD8B409EF24F0200AD8B409EFBC
:103B700024F03B0AD8B416EF24F0200AD8B416EF8C
:103B800024F01F0AD8B423EF24F0200AD8B423EF7E
:103B900024F0210AD8B430EF24F0200AD8B430EF52
:103BA00024F0220AD8B43DEF24F0200AD8B43DEF27
:103BB00024F0630AD8B44AEF24F04E0AD8B457EF81
:103BC00024F0200AD8B457EF24F06A0AD8B47AEF68
:103BD00024F0660AD8B487EF24F0200AD8B487EF1F
:103BE00024F01E0AD8B49CEF24F0200AD8B49CEF2D
:103BF00024F0660AD8B404EF26F041EF26F054C250
:103C000055F253C254F264C053F2300E0201555DB6
:103C1000806F896B640E886F8B6B80C28AF20001A3
:103C2000BAEC10F002C081F201C080F2300E020145
:103C3000545D0A0DF3508027000E8123300E535D32
:103C40008025566F000E8121576F100EE96E57C206
:103C500083F256C282F2000104EC15F00A0E9EA80F
:103C6000FED7AD6E0D0E9EA8FED7AD6E42EF26F0CC
:103C70001A0EF66E090EF76E4ADC02017F6B7FBFEB
:103C800004D07F510208D8A08DD0036A7F51510F14
:103C9000E96E000E0320EA6E036A7F51510FE96E50
:103CA000000E0320EA6EEF500D084DE3010E7F2554
:103CB000806F036A7F51510FE96E000E0320EA6E98
:103CC000EFCF81F2036A7F51510FE96E000E03209E
:103CD000EA6ED890EF34036AF20FE96E000E03200B
:103CE000EA6EECCF83F2ED52EFCF82F280C284F223
:103CF0001F0E856F000132DC3A0E9EA8FED7AD6E16
:103D0000200E9EA8FED7AD6E81C284F21F0E020166
:103D1000856F000123DC2C0E9EA8FED7AD6E200E11
:103D20009EA8FED7AD6E83C2EAFF82C2E9FFF1EC26
:103D300014F00A0E9EA8FED7AD6E0D0E9EA8FED7FB
:103D4000AD6E2DD00201010E7F25806F036A7F5179
:103D5000510FE96E000E0320EA6EEFCF81F280C2B0
:103D600084F21F0E856F0001AEEC1AF03A0E9EA889
:103D7000FED7AD6E200E9EA8FED7AD6E81C284F236
:103D80001F0E0201856F0001AEEC1AF04C0EF66EAC
:103D9000090EF76E100E0201846F00014DDC020166
:103DA0007F2B6DD7000142EF26F0810E0201806F5C
:103DB000000157DC0A0E0201896F00010CEC0DF0C6
:103DC000820E0201806F00014CDC42EF26F0EEEC27
:103DD00010F002C081F201C080F202C083F201C083
:103DE00082F2B5EC11F003C086F202C085F201C088
:103DF00084F200C083F283EC15F000C080F201C0B1
:103E000081F202C082F203C083F203C087F202C0D3
:103E100086F201C085F200C084F2D00E02018B6FE1
:103E2000B60E8A6F200E896F930E886F0001B0EC7A
:103E300015F003C03CF002C03BF001C03AF000C0F6
:103E400039F04CC086F24BC085F24AC084F249C0BA
:103E500083F283EC15F000C080F201C081F202C051
:103E600082F203C083F203C087F202C086F201C06F
:103E700085F200C084F2D00E02018B6FB60E8A6FFD
:103E8000200E896F930E886F0001B0EC15F000C012
:103E900080F201C081F202C082F203C083F2560EAA
:103EA0009EA8FED7AD6E3A0E9EA8FED7AD6E200E30
:103EB0009EA8FED7AD6E890EE96E3CC087F23BC06E
:103EC00086F23AC085F239C084F2020E0201886F90
:103ED000000146EC17F0630EF66E090EF76E050E44
:103EE0000201846F00011CEC1BF0890EE96E83C295
:103EF00087F282C286F281C285F280C284F2020E0B
:103F00000201886F000146EC17F00A0E9EA8FED74A
:103F1000AD6E0D0E9EA8FED7AD6E42EF26F00201EB
:103F20007F6B7FBF03D07F51060843E36E0EF66EB2
:103F3000090EF76E050E846F00011CEC1BF07FC2AA
:103F400084F21F0E0201856F0001AEEC1AF03D0EE7
:103F50009EA8FED7AD6E7FC280F2020E0201816F75
:103F6000000158DC0150036A6E0FE96E000E032059
:103F7000EA6EECCF81F2ED52EFCF80F281C283F294
:103F800080C282F2A9EC14F002C081F201C080F27A
:103F900002C0EAFF01C0E9FFF1EC14F00A0E9EA88E
:103FA000FED7AD6E0D0E9EA8FED7AD6E02017F2B23
:103FB000B8D77F6B7FBF03D07F51050846E3070E5C
:103FC0007F25806F780EF66E090EF76E050E846FF2
:103FD00000011CEC1BF080C284F21F0E0201856FF1
:103FE0000001AEEC1AF03D0E9EA8FED7AD6E7FC26A
:103FF00080F2020E0201816F00010CDC0150036AA5
:10400000860FE96E000E0320EA6EECCF81F2ED52CE
:10401000EFCF80F281C283F280C282F2A9EC14F069
:1040200002C081F201C080F202C0EAFF01C0E9FFD4
:10403000F1EC14F00A0E9EA8FED7AD6E0D0E9EA8F0
:10404000FED7AD6E02017F2BB5D70A0E9EA8FED714
:10405000AD6E0D0E9EA8FED7AD6E0001EEEC10F019
:1040600002C081F201C080F2820EF66E090EF76E78
:104070000C0E0201846F00011CEC1BF0100EE96EA7
:1040800081C283F280C282F204EC15F00A0E9EA86F
:10409000FED7AD6E0D0E9EA8FED7AD6E42EF26F098
:1040A000100EE96E6DC085F26CC084F2BAEC18F0A7
:1040B000430E9EA8FED7AD6E0A0E9EA8FED7AD6E2B
:1040C0000D0E9EA8FED7AD6E42EF26F046C089F2D7
:1040D00045C088F202018B6B3C0E8A6F0001CBEC6D
:1040E00010F002C081F201C080F246C089F245C0E2
:1040F00088F202018B6B3C0E8A6F0001CBEC10F052
:1041000000C082F2020103C083F2940EF66E090E23
:10411000F76E0D0E846F00011CEC1BF0100EE96EA3
:1041200081C285F280C284F2BAEC18F0A40EF66E59
:10413000090EF76E050E0201846F00011CEC1BF0E6
:10414000100EE96E83C285F282C284F2BAEC18F0D6
:10415000AC0EF66E090EF76E040E0201846F0001BC
:104160001CEC1BF042EF26F0B20EF66E090EF76E55
:1041700087EC1AF00C0E02017F6F7FBF24D0000184
:1041800059EC15F002C081F201C080F281C203F047
:1041900002018051026E7F51006E05E0D89003321B
:1041A0000232002EFBD7025002A006D0310E0001D1
:1041B00031EC1CF005D00201300E000131EC1CF096
:1041C00002017F07DAD70A0E9EA8FED7AD6E0D0E4C
:1041D0009EA8FED7AD6E38A021D0CE0EF66E090E89
:1041E000F76E000187EC1AF0445207E1DA0EF66E22
:1041F000090EF76E87EC1AF00FD0442C07D0E20EB0
:10420000F66E090EF76E87EC1AF006D0F60EF66E13
:10421000090EF76E87EC1AF008D002010A0EF66E4E
:104220000A0EF76E000187EC1AF042EF26F04CC040
:1042300086F24BC085F24AC084F249C083F283EC17
:1042400015F000C080F201C081F202C082F203C00A
:1042500083F203C087F202C086F201C085F200C07B
:1042600084F2D00E02018B6FB60E8A6F200E896F1A
:10427000930E886F0001B0EC15F003C03CF002C053
:104280003BF001C03AF000C039F01A0EF66E0A0E8B
:10429000F76E0F0E0201846F00011CEC1BF0100E74
:1042A000E96E6BC085F26AC084F2BAEC18F02C0E8D
:1042B000F66E0A0EF76E0A0E0201846F00011CEC06
:1042C0001BF0410EE96E4CC083F24BC082F24AC033
:1042D00081F249C080F215EC18F0390EF66E0A0E24
:1042E000F76E0C0E0201846F00011CEC1BF0890EAE
:1042F000E96E3CC087F23BC086F23AC085F239C015
:1043000084F2020E0201886F000146EC17F00A0EDB
:104310009EA8FED7AD6E0D0E9EA8FED7AD6E14C240
:1043200081F213C280F2A1C085F2A0C084F29FC0C6
:1043300083F29EC082F29CEC18F0011C0201826F95
:10434000021C836F822BD8B4832B4A0EF66E0A0EA2
:10435000F76E090E846F00011CEC1BF0100EE96E65
:1043600081C285F280C284F2BAEC18F0560EF66E65
:104370000A0EF76E0A0E0201846F00011CEC1BF09E
:10438000100EE96E83C285F282C284F2BAEC18F094
:104390000A0E9EA8FED7AD6E0D0E9EA8FED7AD6E7E
:1043A00042EF26F0010E02017F6F7FBF03D07F51E5
:1043B000080813E3036A7F51400FE96E020E0320E1
:1043C000EA6EEFCF80F280C282F2570E836F000157
:1043D00060EC15F002017F2BE8D70A0E9EA8FED7ED
:1043E000AD6E0D0E9EA8FED7AD6E000142EF26F019
:1043F000660EF66E0A0EF76E0C0E0201846F000157
:104400001CEC1BF0100EE96E48C083F247C082F22C
:1044100004EC15F0750EF66E0A0EF76E0C0E020126
:10442000846F00011CEC1BF0410EE96E50C083F25A
:104430004FC082F24EC081F24DC080F215EC18F0F0
:104440000A0E9EA8FED7AD6E0D0E9EA8FED7AD6ECD
:10445000880EF66E0A0EF76E87EC1AF057C083F2DC
:1044600056C082F2A9EC14F002C081F201C080F2C1
:1044700002C0EAFF01C0E9FFF1EC14F0940EF66E01
:104480000A0EF76E87EC1AF05FC083F25EC082F20C
:10449000A9EC14F002C081F201C080F202C0EAFF70
:1044A00001C0E9FFF1EC14F0560E9EA8FED7AD6EE8
:1044B0000A0E9EA8FED7AD6E0D0E9EA8FED7AD6E5D
:1044C0005B300201816F5A30806F813380338133DA
:1044D0008033813380330F0E8117A40EF66E0A0EDF
:1044E000F76E110E846F00011CEC1BF0100EE96ECC
:1044F00081C283F280C282F204EC15F0090E9EA8FC
:10450000FED7AD6E090E9EA8FED7AD6E63310201D7
:10451000816F000162310201806F8133803381330A
:104520008033813380330F0E8117BC0EF66E0A0E76
:10453000F76E120E846F00011CEC1BF0100EE96E7A
:1045400081C283F280C282F204EC15F00A0E9EA8AA
:10455000FED7AD6E0D0E9EA8FED7AD6E5A500F0B56
:104560000201806F816BD40EF66E0A0EF76E100E8C
:10457000846F00011CEC1BF0100EE96E81C283F207
:1045800080C282F204EC15F0090E9EA8FED7AD6E33
:10459000090E9EA8FED7AD6E62510F0B0201806F0F
:1045A000816BEA0EF66E0A0EF76E110E846F000133
:1045B0001CEC1BF0100EE96E81C283F280C282F205
:1045C00004EC15F00A0E9EA8FED7AD6E0D0E9EA847
:1045D000FED7AD6E57D3020EF66E0B0EF76E0E0EB3
:1045E0000201846F00011CEC1BF0A3C080F21B0EC3
:1045F0000201816F000135EC1CF00A0E9EA8FED767
:10460000AD6E0D0E9EA8FED7AD6E160EF66E0B0E9D
:10461000F76E0E0E0201846F00011CEC1BF0A7C0A8
:1046200080F21B0E0201816F000135EC1CF00A0EB6
:104630009EA8FED7AD6E0D0E9EA8FED7AD6E2A0EBB
:10464000F66E0B0EF76E160E0201846F00011CEC65
:104650001BF0A5C080F21B0E0201816F000135EC3A
:104660001CF00A0E9EA8FED7AD6E0D0E9EA8FED7BA
:10467000AD6E460EF66E0B0EF76E180E0201846FCD
:1046800000011CEC1BF0A8C080F21B0E0201816F20
:10469000000135EC1CF00A0E9EA8FED7AD6E0D0E83
:1046A0009EA8FED7AD6E640EF66E0B0EF76E180E5A
:1046B0000201846F00011CEC1BF0A9C080F21B0EEC
:1046C0000201816F000135EC1CF00A0E9EA8FED796
:1046D000AD6E0D0E9EA8FED7AD6ED4D29284000EA4
:1046E00080A4010E0201806F820EF66E0B0EF76E33
:1046F0000F0E846F00011CEC1BF080C284F21F0EB1
:104700000201856F0001AEEC1AF00A0E9EA8FED7DA
:10471000AD6E0D0E9EA8FED7AD6EB4D2960EF66E9F
:104720000B0EF76E080E0201846F00011CEC1BF0EB
:10473000030E0201846F1F0E856F0001AEEC1AF0AC
:104740002E0E9EA8FED7AD6E0201846B1F0E856FE4
:104750000001AEEC1AF0A30EF66E0B0EF76E0A0E09
:104760000201846F00011CEC1BF0030E0201846F38
:104770001F0E856F0001AEEC1AF02E0E9EA8FED71C
:10478000AD6E050E0201846F1F0E856F0001AEEC49
:104790001AF0B20EF66E0B0EF76E0E0E0201846F5B
:1047A00000011CEC1BF0C60EF66E0B0EF76E87ECCC
:1047B0001AF00A0E9EA8FED7AD6E0D0E9EA8FED76B
:1047C000AD6E60D2D00EF66E0B0EF76E87EC1AF05F
:1047D000030E656F620E0201526F000153D2FE0E8E
:1047E000F66E0B0EF76E87EC1AF0030E656F6E0E09
:1047F0000201526F000146D22C0EF66E0C0EF76EBF
:1048000087EC1AF0030E656F770E0201526F0001FC
:1048100039D25E0EF66E0C0EF76E87EC1AF0030EB0
:10482000656F610E0201526F00012CD28C0EF66E84
:104830000C0EF76E87EC1AF0030E656F7A0E02010C
:10484000526F00011FD2BA0EF66E0C0EF76E87EC97
:104850001AF0030E656F650E0201526F000112D24D
:10486000E80EF66E0C0EF76E87EC1AF0030E656F0D
:10487000640E0201526F000105D2180EF66E0D0E85
:10488000F76E87EC1AF0030E656F660E0201526F29
:104890000001F8D1420EF66E0D0EF76E87EC1AF09D
:1048A000030E656F250E0201526F0001EBD16E0EF3
:1048B000F66E0D0EF76E130E0201846F00011CECF4
:1048C0001BF0100EE96E57C283F256C282F204EC5E
:1048D00015F0840EF66E0D0EF76E1A0E0201846F3F
:1048E00000011CEC1BF0030E656F6B0E0201526F92
:1048F0000001C8D1A00EF66E0D0EF76E87EC1AF00F
:10490000030E656F210E0201526F0001BBD1665389
:104910000FE167530DE1C40EF66E0D0EF76E87ECD6
:104920001AF0030E656F670E0201526F03D000018B
:10493000676B666B0001A6D1655327E002015251F7
:104940006208D8B402D0000120D0DC0EF66E0D0E45
:10495000F76E000187EC1AF002017F6B7FBF03D076
:104960007F510C0808E37FC285F2000174EC1CF053
:1049700002017F2BF3D7000186EC1CF0020E446E7F
:10498000656B0201526B3ED10001655317E00201D5
:1049900052516E08D8B402D0000110D0EC0EF66E61
:1049A0000D0EF76E000187EC1AF060EC0FF0010EAF
:1049B000446E656B0201526B25D10001655314E012
:1049C000020152517708D8B402D000010DD0FE0E7A
:1049D000F66E0D0EF76E000187EC1AF0446A656BF7
:1049E0000201526B0FD10001655314E002015251D4
:1049F0006108D8B402D000010DD0140EF66E0E0E70
:104A0000F76E000187EC1AF03884656B0201526B77
:104A1000F9D00001655314E0020152517A08D8B46C
:104A200002D000010DD02A0EF66E0E0EF76E0001B8
:104A300087EC1AF03894656B0201526BE3D00001E9
:104A4000655315E0020152516508D8B402D0000147
:104A50000ED0400EF66E0E0EF76E000187EC1AF0C7
:104A600076EC12F0656B0201526BCCD000016553FD
:104A700015E0020152516408D8B402D000010ED0F2
:104A8000580EF66E0E0EF76E000187EC1AF0DEEC93
:104A900003F0656B0201526BB5D00001655335E040
:104AA000020152516608D8B402D000012ED0700E17
:104AB000F66E0E0EF76E000187EC1AF0EEEC10F0B9
:104AC00002C081F201C080F202C083F201C082F212
:104AD000B5EC11F003C083F202C082F201C081F292
:104AE00000C080F203C087F202C086F201C085F2E6
:104AF00000C084F20201886B896B000120EC12F087
:104B0000656B0201526B7ED0000165532AE0020101
:104B100052512508D8B402D0000123D0800EF66E81
:104B20000E0EF76E000187EC1AF0486A476A070E0E
:104B3000506ED80E4F6EED0E4E6E280E4D6E656B9C
:104B40000201526B196AF2BC198CF29CF2BE198EEA
:104B5000F29E0001E5EC09F019BCF28C19BEF28E50
:104B600051D0655317E0020152516B08D8B402D0FE
:104B7000000110D0920EF66E0E0EF76E000187EC5B
:104B80001AF057C248F056C247F0656B0201526BEB
:104B900039D00001655315E0020152516708D8B4BD
:104BA00002D000010ED057C267F056C266F057C25D
:104BB00069F056C268F00001656B0201526B22D0A9
:104BC000000165531FE0020152512108D8B402D000
:104BD000000118D0A60EF66E0E0EF76E000187ECDF
:104BE0001AF0196AF2BC198CF29CF2BE198EF29E70
:104BF000010E0201AE6F000195EC0CF019BCF28CB5
:104C000019BEF28E00013ED0B60EF66E0E0EF76E95
:104C100087EC1AF0080EF66E0F0EF76E87EC1AF09E
:104C2000540EF66E0F0EF76E87EC1AF0AC0EF66EA1
:104C30000F0EF76E87EC1AF0FC0EF66E0F0EF76E85
:104C4000300E0201846F00011CEC1BF0250E9EA8A3
:104C5000FED7AD6E2E0EF66E100EF76E220E02010E
:104C6000846F00011CEC1BF0520EF66E100EF76EF6
:104C700087EC1AF0A80EF66E100EF76E87EC1AF09D
:104C800001D000D0389A97EF32F0D8B204D0020E9B
:104C9000EA6E8B0EE96E020186518A19800B906FC5
:104CA00086AF0BD0831F841F851F861F832BD8B42C
:104CB000842BD8B4852BD8B4862B8AAF0BD0871F12
:104CC000881F891F8A1F872BD8B4882BD8B4892BBB
:104CD000D8B48A2B006A016A026A036A8B6B8C6BF8
:104CE0008D6B8E6B8A518911881187112CE0200EF3
:104CF0008F6FD89083378437853786378B378C37DB
:104D00008D378E378A518E5D08E189518D5D05E1C1
:104D100088518C5D02E187518B5D0FE387518B5F7A
:104D20008851D8A0883D8C5F8951D8A0893D8D5F7E
:104D30008A51D8A08A3D8E5FD8800036013602366F
:104D400003368F2FD6D790AF0BD0001E011E021E48
:104D5000031E002AD8B4012AD8B4022AD8B4032AE0
:104D60008BC2EFFF8CC2ECFF8DC2ECFF8EC2ECFF5A
:104D700000011200800ED8A202D00201881B02019D
:104D80008D6B8E6B84C28CF288518C1B8351D8B48E
:104D9000DFD08B6F006E8751D8B4E3D08B5FD8B46F
:104DA00083D03EE388C291F2918F89C290F28AC289
:104DB0008FF28E6BD890913390338F338E338B2F4D
:104DC000F8D78CAF03D08D81E0D08D918B918D89F8
:104DD000020EEA6E860EE96EEBD08D998CBF0AD07A
:104DE0008BA113D0913390338F338E33002AD8B4F4
:104DF000C7D00BD091BF0CD0D8908E378F3790375B
:104E000091370006D8B4BCD0F5D78D8D6DD08D9D6F
:104E100084C28CF284AF02D0918FABD0919FA9D085
:104E200087C28BF287C200F083518B5F84C291F2FC
:104E3000918F85C290F286C28FF28E6BD89091339B
:104E400090338F338E338B2FF8D78CAF03D08D8375
:104E50009CD08D938B918D8B020EEA6E8A0EE96E3B
:104E6000A7D08D9B8CBF0AD08BA113D091339033E8
:104E70008F338E33002AD8B483D00BD091BF0CD09F
:104E8000D8908E378F37903791370006D8B478D0C6
:104E9000F5D78D8F29D08D9F88C28CF288AF02D034
:104EA000918F67D0919F65D088C291F2918F89C20E
:104EB00090F28AC28FF28CAF04D0919F8D8565D01D
:104EC0008D958E6B8B91020EEA6E860EE96E70D018
:104ED0008CBF1CD084C28CF28BA106D0913390334E
:104EE0008F338E33002A4CE08EAF0BD08F2B09E12D
:104EF000902B07E1912B05E1913390338F33002AFA
:104F00003FE08DBD84D78DBFC6D71CD0800E911BCE
:104F100091AF04D03AD088C28CF20AD084C28CF20D
:104F2000915306E1905304E18F5302E1006A21D0CE
:104F300091BF08D0D8908E378F3790379137002E99
:104F4000F7D71ED08CAF02D0918F13D0919F11D084
:104F500087C200F088C291F289C290F28AC28FF2B1
:104F600008D083C200F084C291F285C290F286C25A
:104F70008FF291C201F090C202F08FC203F034D0E0
:104F8000006A016A026A036A2FD08E6B8F1F901F1E
:104F9000911F8E1F8E2B05E18F2B03E1902B01E1DA
:104FA000912B8DB112D78DB354D78DB589D7B3D787
:104FB000EF508F2705E3902B03E1912BD8B48B8121
:104FC000ED52EF50902703E3912BD8B48B81ED5233
:104FD000EF50EFBE01D0800A9127D8B08B818DB9F8
:104FE000FCD68DBB3ED774D7000166EF33F00201CB
:104FF0007FC2E9FF80C2EAFFEC68ED52EF6881C230
:10500000E9FF82C2EAFFEC6AED52EF6A876B8751D3
:105010000608D8A078D0D8908735036A6E0FE96E5D
:10502000000E0320EA6EECCF89F2ED52EFCF88F24A
:105030007FC2E9FF80C2EAFFECCF03F0ED52EFCF71
:1050400001F08951035C22E303E10150885D1EE217
:1050500080C203F0D8908735036A6E0FE96E000EA8
:105060000320EA6EECCF03F0ED52EFCF8AF280C25C
:10507000EAFF7FC2E9FF03C0ECFFED528AC2EFFFF7
:1050800083C2E9FF84C2EAFF87C2EFFFD890873569
:10509000036A6E0FE96E000E0320EA6EECCF89F210
:1050A000ED52EFCF88F281C2E9FF82C2EAFFECCF76
:1050B00003F0ED52EFCF01F00350895D22E303E1ED
:1050C0008851015C1EE282C203F0D8908735036AE2
:1050D0006E0FE96E000E0320EA6EECCF03F0ED5286
:1050E000EFCF8AF282C2EAFF81C2E9FF03C0ECFF80
:1050F000ED528AC2EFFF85C2E9FF86C2EAFF87C28E
:10510000EFFF872B84D7876B87510508D8A07AD00B
:10511000D8908735036A860FE96E000E0320EA6E89
:10512000ECCF89F2ED52EFCF88F27FC2E9FF80C267
:10513000EAFFECCF03F0ED52EFCF01F08951035CB1
:1051400023E303E10150885D1FE280C203F0D890A1
:105150008735036A860FE96E000E0320EA6EECCFF6
:1051600003F0ED52EFCF8AF280C2EAFF7FC2E9FF7F
:1051700003C0ECFFED528AC2EFFF83C2E9FF84C295
:10518000EAFF070E8725EF6ED8908735036A860FF2
:10519000E96E000E0320EA6EECCF89F2ED52EFCFFC
:1051A00088F281C2E9FF82C2EAFFECCF03F0ED5240
:1051B000EFCF01F00350895D23E303E18851015CE7
:1051C0001FE282C203F0D8908735036A860FE96E2A
:1051D000000E0320EA6EECCF03F0ED52EFCF8AF21F
:1051E00082C2EAFF81C2E9FF03C0ECFFED528AC22E
:1051F000EFFF85C2E9FF86C2EAFF070E8725EF6E43
:10520000872B82D70001FFEF34F080C287F20201C2
:105210008451871B87AF05D0D894D89080BFD880A1
:105220002FD080C287F283C288F27F51885F06E068
:1052300087AF26D0D850010AD86E22D084C288F217
:105240008051885F06E087AF1BD0D850010AD86E26
:1052500017D085C288F28151885F06E087AF10D0F1
:10526000D850010AD86E0CD086C288F28251885F6D
:1052700006E087AF05D0D850010AD86E01D0D8908B
:105280000001F4EF35F002017F69806994948B94FA
:10529000040000D00000010E936F0001FDEC0EF041
:1052A00004001A0E006E002EFED7040E0201916F4C
:1052B0007FC292F200011EEC0FF004001A0E006E85
:1052C000002EFED780C291F20201926900011EEC0D
:1052D0000FF004001A0E006E002EFED7850E02019C
:1052E000916FA60E926F00011EEC0FF004001A0ED3
:1052F000006E002EFED794948B841F0E02010E6F59
:105300000D69000159EF36F0020187698669036A69
:10531000010E026E8551006E05E0D890023603360C
:10532000002EFBD70250FF0A006EFF0E031A00503A
:1053300086170350871786510D1787510E170001E6
:10534000120002018051D10811E2FF0A03E17F51EE
:10535000EF080CE2836B83510C0807E383C285F2EC
:105360000001D2DF0201832BF6D786D0836B8351F5
:1053700006083DE3D8908335036A6E0FE96E000E90
:105380000320EA6EECCF85F2ED52EFCF84F2855127
:10539000070826E2FF0A03E18451120821E2D890AF
:1053A0008335036A6E0FE96E000E0320EA6EECCFC0
:1053B00085F2ED52EFCF84F20A0E8125016E000EC8
:1053C0008221036E0350855D0BE303E18451015C90
:1053D00007E283C285F2000174EC1CF005D00201E3
:1053E00083C285F2000190DF0201832BC0D7836B5B
:1053F0008351050841E3D8908335036A860FE96E2F
:10540000000E0320EA6EECCF85F2ED52EFCF84F26E
:105410008551070828E2FF0A03E18451120823E2BC
:10542000D8908335036A860FE96E000E0320EA6E7A
:10543000ECCF85F2ED52EFCF84F20A0E8125016E9A
:10544000000E8221036E0350855D0DE303E184515C
:10545000015C09E2070E8325846F856F000174ECFF
:105460001CF007D00201070E8325846F856F0001B1
:105470004BDF0201832BBCD7000166EF36F002013F
:1054800082BF09D0825338E1815336E1805334E141
:105490007F51370831E3452AD8B4462A46501B08C5
:1054A0002AE2FF0A03E145501F0825E282AF12D02D
:1054B0008251FE0820E2FF0A0DE18151FE081BE245
:1054C000FF0A08E18051FE0816E2FF0A03E17F515E
:1054D0009B0811E2196AF2BC198CF29CF2BE198E7B
:1054E000F29E0D0EAE6F000195EC0CF019BCF28C23
:1054F00019BEF28E020102D0466A456A00017DEFB4
:1055000036F0F86A9F92F1909F9AA58ED08E078E02
:10551000EA6AE96A700ED36ED350B896190EAF6E70
:10552000A60EAC6E900EAB6E366A356A346A336A7C
:10553000376A38963898466A456A676B666B020127
:105540000E6B0D6B938293847190719271962C0EF9
:105550006E6E360E6C6E4D6B030E4E6F4F6B516B55
:10556000506B526B300E536F300E546F300E556FC0
:10557000576B566BC150F00BC16E000E0F01386FA8
:10558000000E3C6F000E396F000E3A6F000E3B6F3D
:10559000786A796A2F6A306A4A0E0001C26F410E3A
:1055A000C36F4E0EC46FC56B460EC66F450EC76FF8
:1055B000420EC86FC96B4D0ECA6F410ECB6F520EB3
:1055C000CC6FCD6B410ECE6F500ECF6F520ED06FA1
:1055D000D16B4D0ED26F410ED36F590ED46FD56B78
:1055E0004A0ED66F550ED76F4E0ED86FD96B4A0E36
:1055F000DA6F550EDB6F4C0EDC6FDD6B410EDE6F2C
:10560000550EDF6F470EE06FE16B530EE26F450EF4
:10561000E36F500EE46FE56B4F0EE66F430EE76FDE
:10562000540EE86FE96B4E0EEA6F4F0EEB6F560E9D
:10563000EC6FED6B440EEE6F450EEF6F430EF06FA7
:10564000F16BAB6BC20EAA6FAD6BC60EAC6FAF6BDE
:10565000CA0EAE6FB16BCE0EB06FB36BD20EB26F1F
:10566000B56BD60EB46FB76BDA0EB66FB96BDE0ED4
:10567000B86FBB6BE20EBA6FBD6BE60EBC6FBF6B53
:10568000EA0EBE6FC16BEE0EC06F550E01010E6FBC
:105690006E0E0F6F690E106F6E0E116F690E126F26
:1056A000740E136F690E146F610E156F6C0E166F0A
:1056B000690E176F7A0E186F650E196F640E1A6FE8
:1056C0001B6B530E1C6F650E1D6F720E1E6F690EE5
:1056D0001F6F610E206F6C0E216F200E226F630E04
:1056E000236F6F0E246F6D0E256F6D0E266F610E8A
:1056F000276F6E0E286F640E296F200E2A6F280EFA
:105700002B6F210E2C6F290E2D6F2E6B4C0E2F6FD1
:10571000540E306F430E316F200E326F740E336FA4
:10572000690E346F6D0E356F650E366F6F0E376F05
:10573000750E386F740E396F3A6B4C0E3B6F6F0EEF
:105740003C6F610E3D6F640E3E6F200E3F6F640E26
:10575000406F650E416F740E426F650E436F630EAE
:10576000446F740E456F650E466F640E476F200ED2
:10577000486F610E496F740E4A6F200E4B6F730EA7
:105780004C6F740E4D6F610E4E6F720E4F6F740E34
:10579000506F750E516F700E526F536B490E546FF0
:1057A0006E0E556F760E566F610E576F6C0E586FFA
:1057B000690E596F640E5A6F200E5B6F760E5C6F28
:1057C0006F0E5D6F6C0E5E6F740E5F6F610E606FBB
:1057D000670E616F650E626F200E636F6F0E646FF0
:1057E000720E656F200E666F740E676F650E686FC0
:1057F0006D0E696F700E6A6F200E6B6F610E6C6FAD
:10580000740E6D6F200E6E6F730E6F6F740E706F6F
:10581000610E716F720E726F740E736F750E746F0E
:10582000700E756F766B500E776F6F0E786F770E08
:10583000796F650E7A6F720E7B6F200E7C6F730E20
:105840007D6F770E7E6F690E7F6F740E806F630EB3
:10585000816F680E826F836B4F0E846F760E856F3B
:10586000650E866F720E876F200E886F630E896FCC
:10587000750E8A6F720E8B6F720E8C6F650E8D6F48
:105880006E0E8E6F740E8F6F906B4F0E916F760E43
:10589000926F650E936F720E946F200E956F740E5B
:1058A000966F650E976F6D0E986F700E996F650EFF
:1058B0009A6F720E9B6F610E9C6F740E9D6F750ECA
:1058C0009E6F720E9F6F650EA06FA16B550EA26F3B
:1058D0006E0EA36F640EA46F650EA56F720EA66F99
:1058E000760EA76F6F0EA86F6C0EA96F740EAA6F5D
:1058F000610EAB6F670EAC6F650EAD6FAE6B4F0E8A
:10590000AF6F760EB06F650EB16F720EB26F760E1E
:10591000B36F6F0EB46F6C0EB56F740EB66F610E11
:10592000B76F670EB86F650EB96FBA6B430EBB6F7A
:10593000680EBC6F610EBD6F720EBE6F670EBF6FDB
:10594000650EC06F200EC16F630EC26F6F0EC36F06
:105950006D0EC46F700EC56F6C0EC66F650EC76F8F
:10596000740EC86F650EC96FCA6B490ECB6F6E0E91
:10597000CC6F760ECD6F610ECE6F6C0ECF6F690E51
:10598000D06F640ED16F200ED26F760ED36F6F0E74
:10599000D46F6C0ED56F740ED66F610ED76F670E15
:1059A000D86F650ED96F200EDA6F640EDB6F650E4F
:1059B000DC6F740EDD6F650EDE6F630EDF6F740ECD
:1059C000E06F200EE16F720EE26F650EE36F610E05
:1059D000E46F640EE56F690EE66F6E0EE76F670E9B
:1059E000E86FE96B430EEA6F680EEB6F610EEC6FC8
:1059F000720EED6F670EEE6F690EEF6F6E0EF06F49
:105A0000670EF16F200EF26F740EF36F6F0EF46F6E
:105A10006F0EF56F200EF66F660EF76F610EF86F62
:105A2000730EF96F740EFA6FFB6B430EFC6F680E0A
:105A3000FD6F610EFE6F720EFF6F670E0201006F49
:105A4000690E016F6E0E026F670E036F200E046FFA
:105A5000740E056F690E066F6D0E076F650E086F89
:105A60006F0E096F750E0A6F740E0B6F0C6B010EC3
:105A70000001F36F0E0EF26F010EF56F1C0EF46F46
:105A8000010EF76F2F0EF66F010EF96F3B0EF86FD8
:105A9000010EFB6F540EFA6F010EFD6F770EFC6F57
:105AA000010EFF6F840EFE6F010E0101016F910E5A
:105AB000006F010E036FA20E026F010E056FAF0E95
:105AC000046F010E076FBB0E066F010E096FCB0E40
:105AD000086F010E0B6FEA0E0A6F010E0D6FFC0EC0
