:1000000042C05AC059C058C057C056C0D5C054C0CD
:1000100053C0C9C151C050C04FC04EC04DC04CC0EC
:100020004BC00000FFFF7003E8030000E80370030B
:10003000E8030000FFFFA00FF4010000F40100003E
:100040000000DC05320000003200000000005A1001
:100050001900000019005A1019000000FFFFE90AFA
:100060004B000000FFFF0B0296000000FFFFE204C0
:10007000F4010000EE02E204F4010000EE02E204EA
:10008000F4010000FFFF11241FBECFEDCDBF10E033
:10009000A0E6B0E0E0E4F4E002C005900D92A238E2
:1000A000B107D9F710E0A2E8B0E001C01D92AD3869
:1000B000B107E1F702D0C2C1A3CF8F929F92AF9256
:1000C000BF92CF92DF92EF92FF920F931F9380E83F
:1000D00086BD16BC87B3836087BB23E028BB1FBCEB
:1000E0008AE08EBD1DBC1CBC2BBD88EE8ABD92E093
:1000F0009BB99CB990BF23BF12BE8FEF86BF98BF3C
:1001000019BE2DE088E190E00FB6F894A89581BD66
:100110000FBE21BD78947FEF6FEFAA24BB24650149
:1001200088248A9493E0992ECB9B03C069B36770AF
:1001300004C06F3F11F0762F6FEF80918600882307
:1001400019F0A89510928600F894E0908200F09043
:100150008300009184001091850078947F3F21F303
:10016000E0918B00A80197012A193B094C095D0910
:10017000F0E0EE0FFF1FEE0FFF1FEF59FF4F8081E2
:100180009181A281B381281739074A075B0760F282
:1001900019BE98BAF89470938B0080926000E09238
:1001A0008700F09288000093890010938A00789469
:1001B000570168017FEFB8CF1F920F920FB60F92D1
:1001C00011242F933F934F935F936F937F938F935C
:1001D0009F93AF93BF93EF93FF9380918200909191
:1001E0008300A0918400B09185000196A11DB11DEE
:1001F0008093820090938300A0938400B093850045
:1002000081E08093860020918200309183004091AC
:100210008400509185008091870090918800A09182
:100220008900B0918A0082179307A407B50708F0E8
:10023000A9C0809160008F5F8093600080918B00E7
:100240008430E1F0853038F4823091F0833098F4D6
:10025000813059F407C08630B9F0863090F087308D
:1002600021F415C026E230E014C022E230E011C0D3
:1002700026E330E00EC022E430E00BC02EE430E094
:1002800008C02EE530E005C026E630E002C02EE6CC
:1002900030E080916000E82FFF27E7FDF095EE0F3A
:1002A000FF1FEE0FFF1F3296E20FF31F859195910E
:1002B000A591B491892B11F4109260008091600097
:1002C000E82FFF27E7FDF095EE0FFF1FEE0FFF1F52
:1002D000E20FF31F85919591A591B491BC01809196
:1002E0006000E82FFF27E7FDF095EE0FFF1FEE0FF0
:1002F000FF1F3296E20FF31F85919591A591B4915E
:100300002FEF8F3F920729F48FEF9FEFAFEFBFEFF3
:100310000EC0209182003091830040918400509162
:100320008500A0E0B0E0820F931FA41FB51F80934B
:10033000870090938800A0938900B0938A0061158C
:100340007105D9F080918C00882319F019BE83E0E3
:1003500088BB12BE660F771F9B0140E050E068E447
:1003600078EE81E090E02DD026BF92E098BF81E04A
:1003700086BB99BF80938C0005C019BE10928C007B
:1003800083E088BBFF91EF91BF91AF919F918F91D7
:100390007F916F915F914F913F912F910F900FBE81
:1003A0000F901F9018951F920F920FB60F92112465
:1003B0008F9383E086BB8F910F900FBE0F901F909D
:1003C000189597FB092E05260ED057FD04D014D0A2
:1003D0000AD0001C38F450954095309521953F4F38
:1003E0004F4F5F4F0895F6F7909580957095619502
:1003F0007F4F8F4F9F4F0895A1E21A2EAA1BBB1B60
:10040000FD010DC0AA1FBB1FEE1FFF1FA217B307E0
:10041000E407F50720F0A21BB30BE40BF50B661FF6
:10042000771F881F991F1A9469F7609570958095BA
:1004300090959B01AC01BD01CF010895F894FFCFC9
:10044000FF00000000E8030000E8030000E80300EC
:1004500000320000003200000032000000E803001B
:0204600000009A
:00000001FF
